{
  "contractName": "libwallet",
  "abi": [
    {
      "inputs": [],
      "name": "isSenderRegistered",
      "outputs": [
        {
          "internalType": "bool",
          "name": "",
          "type": "bool"
        }
      ],
      "stateMutability": "view",
      "type": "function",
      "constant": true
    },
    {
      "inputs": [
        {
          "internalType": "address",
          "name": "assignee",
          "type": "address"
        }
      ],
      "name": "assignAddressToSender",
      "outputs": [],
      "stateMutability": "nonpayable",
      "type": "function"
    },
    {
      "inputs": [],
      "name": "getRelatedDevices",
      "outputs": [
        {
          "internalType": "address[]",
          "name": "",
          "type": "address[]"
        }
      ],
      "stateMutability": "view",
      "type": "function",
      "constant": true
    },
    {
      "inputs": [
        {
          "internalType": "string",
          "name": "data",
          "type": "string"
        }
      ],
      "name": "assignData",
      "outputs": [],
      "stateMutability": "nonpayable",
      "type": "function"
    },
    {
      "inputs": [],
      "name": "getData",
      "outputs": [
        {
          "internalType": "string",
          "name": "",
          "type": "string"
        }
      ],
      "stateMutability": "view",
      "type": "function",
      "constant": true
    }
  ],
  "bytecode": "0x608060405234801561001057600080fd5b50610fed806100206000396000f3fe608060405234801561001057600080fd5b50600436106100575760003560e01c80633aafa3881461005c5780633bc5de301461007a57806356a593e314610098578063a60ff9ca146100b4578063e0f64efc146100d0575b600080fd5b6100646100ee565b6040516100719190610d8b565b60405180910390f35b610082610183565b60405161008f9190610da6565b60405180910390f35b6100b260048036038101906100ad9190610c2e565b610348565b005b6100ce60048036038101906100c99190610c57565b610792565b005b6100d86108db565b6040516100e59190610d69565b60405180910390f35b60008073ffffffffffffffffffffffffffffffffffffffff166000803373ffffffffffffffffffffffffffffffffffffffff1673ffffffffffffffffffffffffffffffffffffffff16815260200190815260200160002060009054906101000a900473ffffffffffffffffffffffffffffffffffffffff1673ffffffffffffffffffffffffffffffffffffffff161415905090565b6060600073ffffffffffffffffffffffffffffffffffffffff166000803373ffffffffffffffffffffffffffffffffffffffff1673ffffffffffffffffffffffffffffffffffffffff16815260200190815260200160002060009054906101000a900473ffffffffffffffffffffffffffffffffffffffff1673ffffffffffffffffffffffffffffffffffffffff16141561021d57600080fd5b600260008060003373ffffffffffffffffffffffffffffffffffffffff1673ffffffffffffffffffffffffffffffffffffffff16815260200190815260200160002060009054906101000a900473ffffffffffffffffffffffffffffffffffffffff1673ffffffffffffffffffffffffffffffffffffffff1673ffffffffffffffffffffffffffffffffffffffff16815260200190815260200160002080546102c590610ed4565b80601f01602080910402602001604051908101604052809291908181526020018280546102f190610ed4565b801561033e5780601f106103135761010080835404028352916020019161033e565b820191906000526020600020905b81548152906001019060200180831161032157829003601f168201915b5050505050905090565b8073ffffffffffffffffffffffffffffffffffffffff16600360003373ffffffffffffffffffffffffffffffffffffffff1673ffffffffffffffffffffffffffffffffffffffff16815260200190815260200160002060009054906101000a900473ffffffffffffffffffffffffffffffffffffffff1673ffffffffffffffffffffffffffffffffffffffff1614156103e05761078f565b336000808373ffffffffffffffffffffffffffffffffffffffff1673ffffffffffffffffffffffffffffffffffffffff16815260200190815260200160002060006101000a81548173ffffffffffffffffffffffffffffffffffffffff021916908373ffffffffffffffffffffffffffffffffffffffff16021790555060006001600460003373ffffffffffffffffffffffffffffffffffffffff1673ffffffffffffffffffffffffffffffffffffffff16815260200190815260200160002060009054906101000a900461ffff166104b99190610e1d565b905080600460003373ffffffffffffffffffffffffffffffffffffffff1673ffffffffffffffffffffffffffffffffffffffff16815260200190815260200160002060006101000a81548161ffff021916908361ffff160217905550600073ffffffffffffffffffffffffffffffffffffffff16600360003373ffffffffffffffffffffffffffffffffffffffff1673ffffffffffffffffffffffffffffffffffffffff16815260200190815260200160002060009054906101000a900473ffffffffffffffffffffffffffffffffffffffff1673ffffffffffffffffffffffffffffffffffffffff161461070e576000600360003373ffffffffffffffffffffffffffffffffffffffff1673ffffffffffffffffffffffffffffffffffffffff16815260200190815260200160002060009054906101000a900473ffffffffffffffffffffffffffffffffffffffff16905082600360003373ffffffffffffffffffffffffffffffffffffffff1673ffffffffffffffffffffffffffffffffffffffff16815260200190815260200160002060006101000a81548173ffffffffffffffffffffffffffffffffffffffff021916908373ffffffffffffffffffffffffffffffffffffffff16021790555080600360008573ffffffffffffffffffffffffffffffffffffffff1673ffffffffffffffffffffffffffffffffffffffff16815260200190815260200160002060006101000a81548173ffffffffffffffffffffffffffffffffffffffff021916908373ffffffffffffffffffffffffffffffffffffffff1602179055505061078d565b81600360003373ffffffffffffffffffffffffffffffffffffffff1673ffffffffffffffffffffffffffffffffffffffff16815260200190815260200160002060006101000a81548173ffffffffffffffffffffffffffffffffffffffff021916908373ffffffffffffffffffffffffffffffffffffffff1602179055505b505b50565b600073ffffffffffffffffffffffffffffffffffffffff166000803373ffffffffffffffffffffffffffffffffffffffff1673ffffffffffffffffffffffffffffffffffffffff16815260200190815260200160002060009054906101000a900473ffffffffffffffffffffffffffffffffffffffff1673ffffffffffffffffffffffffffffffffffffffff16141561082a57600080fd5b8181600260008060003373ffffffffffffffffffffffffffffffffffffffff1673ffffffffffffffffffffffffffffffffffffffff16815260200190815260200160002060009054906101000a900473ffffffffffffffffffffffffffffffffffffffff1673ffffffffffffffffffffffffffffffffffffffff1673ffffffffffffffffffffffffffffffffffffffff16815260200190815260200160002091906108d6929190610b2c565b505050565b60606000600460003373ffffffffffffffffffffffffffffffffffffffff1673ffffffffffffffffffffffffffffffffffffffff16815260200190815260200160002060009054906101000a900461ffff16905060008161ffff1667ffffffffffffffff811115610975577f4e487b7100000000000000000000000000000000000000000000000000000000600052604160045260246000fd5b6040519080825280602002602001820160405280156109a35781602001602082028036833780820191505090505b50905060008261ffff1614156109bd578092505050610b29565b6000600360003373ffffffffffffffffffffffffffffffffffffffff1673ffffffffffffffffffffffffffffffffffffffff16815260200190815260200160002060009054906101000a900473ffffffffffffffffffffffffffffffffffffffff16905060005b8361ffff168161ffff161015610b215781838261ffff1681518110610a72577f4e487b7100000000000000000000000000000000000000000000000000000000600052603260045260246000fd5b602002602001019073ffffffffffffffffffffffffffffffffffffffff16908173ffffffffffffffffffffffffffffffffffffffff1681525050600360008373ffffffffffffffffffffffffffffffffffffffff1673ffffffffffffffffffffffffffffffffffffffff16815260200190815260200160002060009054906101000a900473ffffffffffffffffffffffffffffffffffffffff1691508080610b1990610f06565b915050610a24565b508193505050505b90565b828054610b3890610ed4565b90600052602060002090601f016020900481019282610b5a5760008555610ba1565b82601f10610b7357803560ff1916838001178555610ba1565b82800160010185558215610ba1579182015b82811115610ba0578235825591602001919060010190610b85565b5b509050610bae9190610bb2565b5090565b5b80821115610bcb576000816000905550600101610bb3565b5090565b600081359050610bde81610fa0565b92915050565b60008083601f840112610bf657600080fd5b8235905067ffffffffffffffff811115610c0f57600080fd5b602083019150836001820283011115610c2757600080fd5b9250929050565b600060208284031215610c4057600080fd5b6000610c4e84828501610bcf565b91505092915050565b60008060208385031215610c6a57600080fd5b600083013567ffffffffffffffff811115610c8457600080fd5b610c9085828601610be4565b92509250509250929050565b6000610ca88383610cb4565b60208301905092915050565b610cbd81610e55565b82525050565b6000610cce82610dd8565b610cd88185610dfb565b9350610ce383610dc8565b8060005b83811015610d14578151610cfb8882610c9c565b9750610d0683610dee565b925050600181019050610ce7565b5085935050505092915050565b610d2a81610e67565b82525050565b6000610d3b82610de3565b610d458185610e0c565b9350610d55818560208601610ea1565b610d5e81610f8f565b840191505092915050565b60006020820190508181036000830152610d838184610cc3565b905092915050565b6000602082019050610da06000830184610d21565b92915050565b60006020820190508181036000830152610dc08184610d30565b905092915050565b6000819050602082019050919050565b600081519050919050565b600081519050919050565b6000602082019050919050565b600082825260208201905092915050565b600082825260208201905092915050565b6000610e2882610e73565b9150610e3383610e73565b92508261ffff03821115610e4a57610e49610f31565b5b828201905092915050565b6000610e6082610e81565b9050919050565b60008115159050919050565b600061ffff82169050919050565b600073ffffffffffffffffffffffffffffffffffffffff82169050919050565b60005b83811015610ebf578082015181840152602081019050610ea4565b83811115610ece576000848401525b50505050565b60006002820490506001821680610eec57607f821691505b60208210811415610f0057610eff610f60565b5b50919050565b6000610f1182610e73565b915061ffff821415610f2657610f25610f31565b5b600182019050919050565b7f4e487b7100000000000000000000000000000000000000000000000000000000600052601160045260246000fd5b7f4e487b7100000000000000000000000000000000000000000000000000000000600052602260045260246000fd5b6000601f19601f8301169050919050565b610fa981610e55565b8114610fb457600080fd5b5056fea2646970667358221220a81d8761a2385af1b5ebba380cb76b33f78ee624e215cf0da9b74b3d2c04ba1364736f6c63430008010033",
  "immutableReferences": {},
  "source": "//SPDX-License-Identifier: MIT\n\npragma solidity ^0.8.0;\n\ncontract libwallet  {\n\n    mapping(address => address) private _ledger;\n    mapping(address => address) private _senderledger;\n    mapping(address => string) private _dataStore;\n\n\n    mapping(address => address) private _deviceChain;\n\n    mapping(address => uint16) private _maxDevices;\n    \n    function isSenderRegistered() public view returns (bool) {\n        return _ledger[msg.sender] != address(0);\n    }\n\n\n    function assignAddressToSender(address assignee) public {\n       if(_deviceChain[msg.sender] == assignee) return;\n\n        //later enable possibility to change via secret, for now its a 1 time assignment\n        _ledger[assignee] = msg.sender;\n\n        uint16 md = _maxDevices[msg.sender] + 1;\n\n        _maxDevices[msg.sender]=md;\n        \n        if(_deviceChain[msg.sender]!=address(0))\n        {\n            address previous = _deviceChain[msg.sender];\n            _deviceChain[msg.sender]=assignee;\n            _deviceChain[assignee] = previous; \n        }\n        else \n        {\n        _deviceChain[msg.sender] = assignee;\n        }\n        \n    }\n\n\nfunction getRelatedDevices() public view returns (address[] memory) {\n    // Get the max device count for the owner\n    uint16 maxDevices = _maxDevices[msg.sender];\n    \n    // Initialize an array of addresses with size maxDevices\n    address[] memory relatedDevices = new address[](maxDevices);\n    \n    // If the owner has no devices, return the empty array\n    if(maxDevices == 0) {\n        return relatedDevices;\n    }\n\n    // Start with the first device in the chain\n    address currentDevice = _deviceChain[msg.sender];\n\n    // Traverse the linked devices\n    for (uint16 i = 0; i < maxDevices; i++) {\n        // Add the current device to the relatedDevices array\n        relatedDevices[i] = currentDevice;\n\n        // Move to the next device in the chain\n        currentDevice = _deviceChain[currentDevice];\n    }\n    \n    return relatedDevices;\n}\n\n\n\n    function assignData(string calldata data) public {\n        require(_ledger[msg.sender] != address(0));\n        _dataStore[_ledger[msg.sender]] = data;\n    }\n\n    function getData() public view returns (string memory) {\n        require(_ledger[msg.sender] != address(0));\n      return  _dataStore[_ledger[msg.sender]];\n    }\n}",
  "sourcePath": "/app/contracts/libwallet.sol",
  "compiler": {
    "name": "solc",
    "version": "0.8.1+commit.df193b15.Emscripten.clang"
  },
  "schemaVersion": "3.4.14",
  "updatedAt": "2023-06-10T14:37:57.542Z",
  "networkType": "ethereum",
  "devdoc": {
    "kind": "dev",
    "methods": {},
    "version": 1
  },
  "userdoc": {
    "kind": "user",
    "methods": {},
    "version": 1
  }
}