{
  "contractName": "libwallet",
  "abi": [
    {
      "inputs": [],
      "name": "isSenderRegistered",
      "outputs": [
        {
          "internalType": "bool",
          "name": "",
          "type": "bool"
        }
      ],
      "stateMutability": "view",
      "type": "function",
      "constant": true
    },
    {
      "inputs": [
        {
          "internalType": "address",
          "name": "assignee",
          "type": "address"
        }
      ],
      "name": "assignAddressToSender",
      "outputs": [],
      "stateMutability": "nonpayable",
      "type": "function"
    },
    {
      "inputs": [
        {
          "internalType": "string",
          "name": "data",
          "type": "string"
        }
      ],
      "name": "assignData",
      "outputs": [],
      "stateMutability": "nonpayable",
      "type": "function"
    },
    {
      "inputs": [],
      "name": "getData",
      "outputs": [
        {
          "internalType": "string",
          "name": "",
          "type": "string"
        }
      ],
      "stateMutability": "view",
      "type": "function",
      "constant": true
    }
  ],
  "bytecode": "0x608060405234801561001057600080fd5b50610829806100206000396000f3fe608060405234801561001057600080fd5b506004361061004c5760003560e01c80633aafa388146100515780633bc5de301461006f57806356a593e31461008d578063a60ff9ca146100a9575b600080fd5b6100596100c5565b60405161006691906106a0565b60405180910390f35b61007761015a565b60405161008491906106bb565b60405180910390f35b6100a760048036038101906100a291906105ea565b61031f565b005b6100c360048036038101906100be9190610613565b61039f565b005b60008073ffffffffffffffffffffffffffffffffffffffff166000803373ffffffffffffffffffffffffffffffffffffffff1673ffffffffffffffffffffffffffffffffffffffff16815260200190815260200160002060009054906101000a900473ffffffffffffffffffffffffffffffffffffffff1673ffffffffffffffffffffffffffffffffffffffff161415905090565b6060600073ffffffffffffffffffffffffffffffffffffffff166000803373ffffffffffffffffffffffffffffffffffffffff1673ffffffffffffffffffffffffffffffffffffffff16815260200190815260200160002060009054906101000a900473ffffffffffffffffffffffffffffffffffffffff1673ffffffffffffffffffffffffffffffffffffffff1614156101f457600080fd5b600160008060003373ffffffffffffffffffffffffffffffffffffffff1673ffffffffffffffffffffffffffffffffffffffff16815260200190815260200160002060009054906101000a900473ffffffffffffffffffffffffffffffffffffffff1673ffffffffffffffffffffffffffffffffffffffff1673ffffffffffffffffffffffffffffffffffffffff168152602001908152602001600020805461029c9061076a565b80601f01602080910402602001604051908101604052809291908181526020018280546102c89061076a565b80156103155780601f106102ea57610100808354040283529160200191610315565b820191906000526020600020905b8154815290600101906020018083116102f857829003601f168201915b5050505050905090565b336000808373ffffffffffffffffffffffffffffffffffffffff1673ffffffffffffffffffffffffffffffffffffffff16815260200190815260200160002060006101000a81548173ffffffffffffffffffffffffffffffffffffffff021916908373ffffffffffffffffffffffffffffffffffffffff16021790555050565b600073ffffffffffffffffffffffffffffffffffffffff166000803373ffffffffffffffffffffffffffffffffffffffff1673ffffffffffffffffffffffffffffffffffffffff16815260200190815260200160002060009054906101000a900473ffffffffffffffffffffffffffffffffffffffff1673ffffffffffffffffffffffffffffffffffffffff16141561043757600080fd5b8181600160008060003373ffffffffffffffffffffffffffffffffffffffff1673ffffffffffffffffffffffffffffffffffffffff16815260200190815260200160002060009054906101000a900473ffffffffffffffffffffffffffffffffffffffff1673ffffffffffffffffffffffffffffffffffffffff1673ffffffffffffffffffffffffffffffffffffffff16815260200190815260200160002091906104e39291906104e8565b505050565b8280546104f49061076a565b90600052602060002090601f016020900481019282610516576000855561055d565b82601f1061052f57803560ff191683800117855561055d565b8280016001018555821561055d579182015b8281111561055c578235825591602001919060010190610541565b5b50905061056a919061056e565b5090565b5b8082111561058757600081600090555060010161056f565b5090565b60008135905061059a816107dc565b92915050565b60008083601f8401126105b257600080fd5b8235905067ffffffffffffffff8111156105cb57600080fd5b6020830191508360018202830111156105e357600080fd5b9250929050565b6000602082840312156105fc57600080fd5b600061060a8482850161058b565b91505092915050565b6000806020838503121561062657600080fd5b600083013567ffffffffffffffff81111561064057600080fd5b61064c858286016105a0565b92509250509250929050565b6106618161070b565b82525050565b6000610672826106dd565b61067c81856106e8565b935061068c818560208601610737565b610695816107cb565b840191505092915050565b60006020820190506106b56000830184610658565b92915050565b600060208201905081810360008301526106d58184610667565b905092915050565b600081519050919050565b600082825260208201905092915050565b600061070482610717565b9050919050565b60008115159050919050565b600073ffffffffffffffffffffffffffffffffffffffff82169050919050565b60005b8381101561075557808201518184015260208101905061073a565b83811115610764576000848401525b50505050565b6000600282049050600182168061078257607f821691505b602082108114156107965761079561079c565b5b50919050565b7f4e487b7100000000000000000000000000000000000000000000000000000000600052602260045260246000fd5b6000601f19601f8301169050919050565b6107e5816106f9565b81146107f057600080fd5b5056fea2646970667358221220a92dea2ab3189dd9edbc8168b7100aa217fae52458a2e0d03a61dee25c2fd08e64736f6c63430008010033",
  "immutableReferences": {},
  "source": "//SPDX-License-Identifier: MIT\n\npragma solidity ^0.8.0;\n\ncontract libwallet  {\n\n    mapping(address => address) private _ledger;\n    mapping(address => string) private _dataStore;\n    \n    function isSenderRegistered() public view returns (bool) {\n        return _ledger[msg.sender] != address(0);\n    }\n\n\n    function assignAddressToSender(address assignee) public {\n        //later enable possibility to change via secret, for now its a 1 time assignment\n        _ledger[assignee] = msg.sender;\n        \n    }\n\n    function assignData(string calldata data) public {\n        require(_ledger[msg.sender] != address(0));\n        _dataStore[_ledger[msg.sender]] = data;\n    }\n\n    function getData() public view returns (string memory) {\n        require(_ledger[msg.sender] != address(0));\n      return  _dataStore[_ledger[msg.sender]];\n    }\n}",
  "sourcePath": "/app/contracts/libwallet.sol",
  "compiler": {
    "name": "solc",
    "version": "0.8.1+commit.df193b15.Emscripten.clang"
  },
  "schemaVersion": "3.4.14",
  "updatedAt": "2023-06-10T11:25:46.544Z",
  "networkType": "ethereum",
  "devdoc": {
    "kind": "dev",
    "methods": {},
    "version": 1
  },
  "userdoc": {
    "kind": "user",
    "methods": {},
    "version": 1
  }
}