{
  "contractName": "MetaTrail",
  "abi": [
    {
      "inputs": [],
      "stateMutability": "nonpayable",
      "type": "constructor"
    },
    {
      "anonymous": false,
      "inputs": [
        {
          "indexed": true,
          "internalType": "address",
          "name": "owner",
          "type": "address"
        },
        {
          "indexed": true,
          "internalType": "address",
          "name": "approved",
          "type": "address"
        },
        {
          "indexed": true,
          "internalType": "uint256",
          "name": "tokenId",
          "type": "uint256"
        }
      ],
      "name": "Approval",
      "type": "event"
    },
    {
      "anonymous": false,
      "inputs": [
        {
          "indexed": true,
          "internalType": "address",
          "name": "owner",
          "type": "address"
        },
        {
          "indexed": true,
          "internalType": "address",
          "name": "operator",
          "type": "address"
        },
        {
          "indexed": false,
          "internalType": "bool",
          "name": "approved",
          "type": "bool"
        }
      ],
      "name": "ApprovalForAll",
      "type": "event"
    },
    {
      "anonymous": false,
      "inputs": [
        {
          "indexed": false,
          "internalType": "address",
          "name": "sender",
          "type": "address"
        },
        {
          "indexed": false,
          "internalType": "uint64",
          "name": "spotId",
          "type": "uint64"
        },
        {
          "indexed": false,
          "internalType": "uint256",
          "name": "cacheTokenId",
          "type": "uint256"
        },
        {
          "indexed": false,
          "internalType": "uint16",
          "name": "currentFameBalance",
          "type": "uint16"
        }
      ],
      "name": "MintedCache",
      "type": "event"
    },
    {
      "anonymous": false,
      "inputs": [
        {
          "indexed": false,
          "internalType": "address",
          "name": "sender",
          "type": "address"
        },
        {
          "indexed": false,
          "internalType": "uint64",
          "name": "spotId",
          "type": "uint64"
        },
        {
          "indexed": false,
          "internalType": "uint256",
          "name": "cacheTokenId",
          "type": "uint256"
        },
        {
          "indexed": false,
          "internalType": "bytes32",
          "name": "entryHash",
          "type": "bytes32"
        },
        {
          "indexed": false,
          "internalType": "uint16",
          "name": "currentFameBalance",
          "type": "uint16"
        }
      ],
      "name": "MintedEntry",
      "type": "event"
    },
    {
      "anonymous": false,
      "inputs": [
        {
          "indexed": true,
          "internalType": "address",
          "name": "previousOwner",
          "type": "address"
        },
        {
          "indexed": true,
          "internalType": "address",
          "name": "newOwner",
          "type": "address"
        }
      ],
      "name": "OwnershipTransferred",
      "type": "event"
    },
    {
      "anonymous": false,
      "inputs": [
        {
          "indexed": false,
          "internalType": "address",
          "name": "sender",
          "type": "address"
        },
        {
          "indexed": false,
          "internalType": "uint256",
          "name": "tokenId",
          "type": "uint256"
        },
        {
          "indexed": false,
          "internalType": "uint64",
          "name": "spotId",
          "type": "uint64"
        },
        {
          "indexed": false,
          "internalType": "uint16",
          "name": "currentFameBalance",
          "type": "uint16"
        }
      ],
      "name": "SpotClaimed",
      "type": "event"
    },
    {
      "anonymous": false,
      "inputs": [
        {
          "indexed": true,
          "internalType": "address",
          "name": "from",
          "type": "address"
        },
        {
          "indexed": true,
          "internalType": "address",
          "name": "to",
          "type": "address"
        },
        {
          "indexed": true,
          "internalType": "uint256",
          "name": "tokenId",
          "type": "uint256"
        }
      ],
      "name": "Transfer",
      "type": "event"
    },
    {
      "anonymous": false,
      "inputs": [
        {
          "indexed": false,
          "internalType": "address",
          "name": "sender",
          "type": "address"
        },
        {
          "indexed": false,
          "internalType": "uint256",
          "name": "cacheTokenId",
          "type": "uint256"
        },
        {
          "indexed": false,
          "internalType": "uint64",
          "name": "spotId",
          "type": "uint64"
        },
        {
          "indexed": false,
          "internalType": "uint16",
          "name": "currentFameBalance",
          "type": "uint16"
        }
      ],
      "name": "UnlockedCache",
      "type": "event"
    },
    {
      "inputs": [],
      "name": "owner",
      "outputs": [
        {
          "internalType": "address",
          "name": "",
          "type": "address"
        }
      ],
      "stateMutability": "view",
      "type": "function"
    },
    {
      "inputs": [],
      "name": "renounceOwnership",
      "outputs": [],
      "stateMutability": "nonpayable",
      "type": "function"
    },
    {
      "inputs": [
        {
          "internalType": "address",
          "name": "newOwner",
          "type": "address"
        }
      ],
      "name": "transferOwnership",
      "outputs": [],
      "stateMutability": "nonpayable",
      "type": "function"
    },
    {
      "inputs": [
        {
          "internalType": "string",
          "name": "uri",
          "type": "string"
        }
      ],
      "name": "setBaseURI",
      "outputs": [],
      "stateMutability": "nonpayable",
      "type": "function"
    },
    {
      "inputs": [],
      "name": "getIsMintingActive",
      "outputs": [
        {
          "internalType": "bool",
          "name": "",
          "type": "bool"
        }
      ],
      "stateMutability": "view",
      "type": "function"
    },
    {
      "inputs": [],
      "name": "setIsMintingActive",
      "outputs": [],
      "stateMutability": "nonpayable",
      "type": "function"
    },
    {
      "inputs": [],
      "name": "setIsMintingInactive",
      "outputs": [],
      "stateMutability": "nonpayable",
      "type": "function"
    },
    {
      "inputs": [],
      "name": "getPossibleRevertMessages",
      "outputs": [
        {
          "internalType": "string[]",
          "name": "",
          "type": "string[]"
        }
      ],
      "stateMutability": "view",
      "type": "function"
    },
    {
      "inputs": [
        {
          "internalType": "string",
          "name": "uniCodeMessage",
          "type": "string"
        },
        {
          "internalType": "uint32",
          "name": "longitude",
          "type": "uint32"
        },
        {
          "internalType": "uint32",
          "name": "latitude",
          "type": "uint32"
        }
      ],
      "name": "mintEntry",
      "outputs": [],
      "stateMutability": "nonpayable",
      "type": "function"
    },
    {
      "inputs": [
        {
          "internalType": "uint32",
          "name": "longitude",
          "type": "uint32"
        },
        {
          "internalType": "uint32",
          "name": "latitude",
          "type": "uint32"
        }
      ],
      "name": "getCachesForSpot",
      "outputs": [
        {
          "components": [
            {
              "internalType": "string",
              "name": "title",
              "type": "string"
            },
            {
              "internalType": "uint128",
              "name": "tokenId",
              "type": "uint128"
            },
            {
              "internalType": "address",
              "name": "author",
              "type": "address"
            },
            {
              "internalType": "bool",
              "name": "unlocked",
              "type": "bool"
            },
            {
              "internalType": "uint32",
              "name": "quantity",
              "type": "uint32"
            }
          ],
          "internalType": "struct MetaTrail.CacheContainer[]",
          "name": "",
          "type": "tuple[]"
        }
      ],
      "stateMutability": "view",
      "type": "function"
    },
    {
      "inputs": [
        {
          "internalType": "uint128",
          "name": "cacheTokenId",
          "type": "uint128"
        }
      ],
      "name": "unlockCache",
      "outputs": [],
      "stateMutability": "nonpayable",
      "type": "function"
    },
    {
      "inputs": [
        {
          "internalType": "uint128",
          "name": "cacheTokenId",
          "type": "uint128"
        }
      ],
      "name": "getUnlockedCacheEntries",
      "outputs": [
        {
          "internalType": "string[]",
          "name": "",
          "type": "string[]"
        }
      ],
      "stateMutability": "view",
      "type": "function"
    },
    {
      "inputs": [
        {
          "internalType": "uint128",
          "name": "cacheTokenId",
          "type": "uint128"
        }
      ],
      "name": "upvoteCache",
      "outputs": [],
      "stateMutability": "nonpayable",
      "type": "function"
    },
    {
      "inputs": [],
      "name": "getFameBalance",
      "outputs": [
        {
          "internalType": "uint16",
          "name": "",
          "type": "uint16"
        }
      ],
      "stateMutability": "view",
      "type": "function"
    },
    {
      "inputs": [
        {
          "internalType": "string",
          "name": "str",
          "type": "string"
        },
        {
          "internalType": "uint256",
          "name": "startIndex",
          "type": "uint256"
        },
        {
          "internalType": "uint256",
          "name": "endIndex",
          "type": "uint256"
        }
      ],
      "name": "_substring",
      "outputs": [
        {
          "internalType": "string",
          "name": "",
          "type": "string"
        }
      ],
      "stateMutability": "pure",
      "type": "function"
    },
    {
      "inputs": [],
      "name": "totalSupply",
      "outputs": [
        {
          "internalType": "uint256",
          "name": "",
          "type": "uint256"
        }
      ],
      "stateMutability": "view",
      "type": "function"
    },
    {
      "inputs": [
        {
          "internalType": "bytes4",
          "name": "interfaceId",
          "type": "bytes4"
        }
      ],
      "name": "supportsInterface",
      "outputs": [
        {
          "internalType": "bool",
          "name": "",
          "type": "bool"
        }
      ],
      "stateMutability": "view",
      "type": "function"
    },
    {
      "inputs": [
        {
          "internalType": "address",
          "name": "owner",
          "type": "address"
        }
      ],
      "name": "balanceOf",
      "outputs": [
        {
          "internalType": "uint256",
          "name": "",
          "type": "uint256"
        }
      ],
      "stateMutability": "view",
      "type": "function"
    },
    {
      "inputs": [
        {
          "internalType": "uint256",
          "name": "tokenId",
          "type": "uint256"
        }
      ],
      "name": "ownerOf",
      "outputs": [
        {
          "internalType": "address",
          "name": "",
          "type": "address"
        }
      ],
      "stateMutability": "view",
      "type": "function"
    },
    {
      "inputs": [],
      "name": "name",
      "outputs": [
        {
          "internalType": "string",
          "name": "",
          "type": "string"
        }
      ],
      "stateMutability": "view",
      "type": "function"
    },
    {
      "inputs": [],
      "name": "symbol",
      "outputs": [
        {
          "internalType": "string",
          "name": "",
          "type": "string"
        }
      ],
      "stateMutability": "view",
      "type": "function"
    },
    {
      "inputs": [
        {
          "internalType": "uint256",
          "name": "tokenId",
          "type": "uint256"
        }
      ],
      "name": "tokenURI",
      "outputs": [
        {
          "internalType": "string",
          "name": "",
          "type": "string"
        }
      ],
      "stateMutability": "view",
      "type": "function"
    },
    {
      "inputs": [
        {
          "internalType": "address",
          "name": "to",
          "type": "address"
        },
        {
          "internalType": "uint256",
          "name": "tokenId",
          "type": "uint256"
        }
      ],
      "name": "approve",
      "outputs": [],
      "stateMutability": "nonpayable",
      "type": "function"
    },
    {
      "inputs": [
        {
          "internalType": "uint256",
          "name": "tokenId",
          "type": "uint256"
        }
      ],
      "name": "getApproved",
      "outputs": [
        {
          "internalType": "address",
          "name": "",
          "type": "address"
        }
      ],
      "stateMutability": "view",
      "type": "function"
    },
    {
      "inputs": [
        {
          "internalType": "address",
          "name": "operator",
          "type": "address"
        },
        {
          "internalType": "bool",
          "name": "approved",
          "type": "bool"
        }
      ],
      "name": "setApprovalForAll",
      "outputs": [],
      "stateMutability": "nonpayable",
      "type": "function"
    },
    {
      "inputs": [
        {
          "internalType": "address",
          "name": "owner",
          "type": "address"
        },
        {
          "internalType": "address",
          "name": "operator",
          "type": "address"
        }
      ],
      "name": "isApprovedForAll",
      "outputs": [
        {
          "internalType": "bool",
          "name": "",
          "type": "bool"
        }
      ],
      "stateMutability": "view",
      "type": "function"
    },
    {
      "inputs": [
        {
          "internalType": "address",
          "name": "from",
          "type": "address"
        },
        {
          "internalType": "address",
          "name": "to",
          "type": "address"
        },
        {
          "internalType": "uint256",
          "name": "tokenId",
          "type": "uint256"
        }
      ],
      "name": "transferFrom",
      "outputs": [],
      "stateMutability": "nonpayable",
      "type": "function"
    },
    {
      "inputs": [
        {
          "internalType": "address",
          "name": "from",
          "type": "address"
        },
        {
          "internalType": "address",
          "name": "to",
          "type": "address"
        },
        {
          "internalType": "uint256",
          "name": "tokenId",
          "type": "uint256"
        }
      ],
      "name": "safeTransferFrom",
      "outputs": [],
      "stateMutability": "nonpayable",
      "type": "function"
    },
    {
      "inputs": [
        {
          "internalType": "address",
          "name": "from",
          "type": "address"
        },
        {
          "internalType": "address",
          "name": "to",
          "type": "address"
        },
        {
          "internalType": "uint256",
          "name": "tokenId",
          "type": "uint256"
        },
        {
          "internalType": "bytes",
          "name": "_data",
          "type": "bytes"
        }
      ],
      "name": "safeTransferFrom",
      "outputs": [],
      "stateMutability": "nonpayable",
      "type": "function"
    }
  ],
  "bytecode": "0x6080604052604051806102a001604052806040518060400160405280600781526020017f5b52513030315d0000000000000000000000000000000000000000000000000081525081526020016040518060400160405280601f81526020017f4d696e74696e672069732063757272656e746c79206e6f74206163746976650081525081526020016040518060400160405280600781526020017f5b52513030325d0000000000000000000000000000000000000000000000000081525081526020016040518060400160405280601e81526020017f596f752063616e6e6f74206d696e7420656d707479206d65737361676573000081525081526020016040518060400160405280600781526020017f5b52513030335d000000000000000000000000000000000000000000000000008152508152602001604051806080016040528060418152602001620063666041913981526020016040518060400160405280600781526020017f5b52513030345d000000000000000000000000000000000000000000000000008152508152602001604051806080016040528060448152602001620063226044913981526020016040518060400160405280600781526020017f5b52513030355d000000000000000000000000000000000000000000000000008152508152602001604051806060016040528060298152602001620062cc6029913981526020016040518060400160405280600781526020017f5b52513030365d000000000000000000000000000000000000000000000000008152508152602001604051806060016040528060238152602001620062a96023913981526020016040518060400160405280600781526020017f5b52513030375d000000000000000000000000000000000000000000000000008152508152602001604051806080016040528060418152602001620063da6041913981526020016040518060400160405280600781526020017f5b52513030385d0000000000000000000000000000000000000000000000000081525081526020016040518060400160405280600f81526020017f6e6f7420656e6f7567682066616d65000000000000000000000000000000000081525081526020016040518060400160405280600781526020017f5b52513030395d0000000000000000000000000000000000000000000000000081525081526020016040518060600160405280602d8152602001620062f5602d913981526020016040518060400160405280600781526020017f5b52513031305d00000000000000000000000000000000000000000000000000815250815260200160405180606001604052806030815260200162006279603091398152602001604051806060016040528060338152602001620063a76033913981525060019060156200041792919062000631565b506001600b60006101000a81548160ff0219169083151502179055506103e8600e60006101000a81548163ffffffff021916908363ffffffff16021790555062989680600e60046101000a81548163ffffffff021916908363ffffffff1602179055503480156200048757600080fd5b50620004a86200049c6200056560201b60201c565b6200056d60201b60201c565b6040518060400160405280600981526020017f4d657461547261696c000000000000000000000000000000000000000000000081525060099080519060200190620004f592919062000698565b506040518060400160405280600481526020017f6d74726c00000000000000000000000000000000000000000000000000000000815250600a90805190602001906200054392919062000698565b506001600b60006101000a81548160ff0219169083151502179055506200081b565b600033905090565b60008060009054906101000a900473ffffffffffffffffffffffffffffffffffffffff169050816000806101000a81548173ffffffffffffffffffffffffffffffffffffffff021916908373ffffffffffffffffffffffffffffffffffffffff1602179055508173ffffffffffffffffffffffffffffffffffffffff168173ffffffffffffffffffffffffffffffffffffffff167f8be0079c531659141344cd1fd0a4f28419497f9722a3daafe3b4186f6b6457e060405160405180910390a35050565b82805482825590600052602060002090810192821562000685579160200282015b82811115620006845782518290805190602001906200067392919062000698565b509160200191906001019062000652565b5b50905062000694919062000729565b5090565b828054620006a690620007b6565b90600052602060002090601f016020900481019282620006ca576000855562000716565b82601f10620006e557805160ff191683800117855562000716565b8280016001018555821562000716579182015b8281111562000715578251825591602001919060010190620006f8565b5b50905062000725919062000751565b5090565b5b808211156200074d576000818162000743919062000770565b506001016200072a565b5090565b5b808211156200076c57600081600090555060010162000752565b5090565b5080546200077e90620007b6565b6000825580601f10620007925750620007b3565b601f016020900490600052602060002090810190620007b2919062000751565b5b50565b60006002820490506001821680620007cf57607f821691505b60208210811415620007e657620007e5620007ec565b5b50919050565b7f4e487b7100000000000000000000000000000000000000000000000000000000600052602260045260246000fd5b615a4e806200082b6000396000f3fe608060405234801561001057600080fd5b50600436106101cf5760003560e01c80637499d76111610104578063b88d4fde116100a2578063eccc62ad11610071578063eccc62ad146104f4578063f00ed96514610510578063f2fde38b14610540578063f56ef71b1461055c576101cf565b8063b88d4fde1461046e578063c87b56dd1461048a578063e05324cf146104ba578063e985e9c5146104c4576101cf565b80638dbbac69116100de5780638dbbac69146103fa57806395d89b4114610404578063a22cb46514610422578063a351972f1461043e576101cf565b80637499d761146103a25780637fd9088b146103be5780638da5cb5b146103dc576101cf565b80632fd77f521161017157806355f804b31161014b57806355f804b31461031c5780636352211e1461033857806370a0823114610368578063715018a614610398576101cf565b80632fd77f52146102c657806342842e0e146102e45780634895b74214610300576101cf565b8063095ea7b3116101ad578063095ea7b31461025257806318160ddd1461026e57806323b872dd1461028c57806325037845146102a8576101cf565b806301ffc9a7146101d457806306fdde0314610204578063081812fc14610222575b600080fd5b6101ee60048036038101906101e99190613c5e565b61058c565b6040516101fb9190614703565b60405180910390f35b61020c61066e565b604051610219919061471e565b60405180910390f35b61023c60048036038101906102379190613de8565b610700565b6040516102499190614536565b60405180910390f35b61026c60048036038101906102679190613c22565b610785565b005b61027661089d565b6040516102839190614a9b565b60405180910390f35b6102a660048036038101906102a19190613b1c565b6108aa565b005b6102b061090a565b6040516102bd9190614a80565b60405180910390f35b6102ce610966565b6040516102db91906146bf565b60405180910390f35b6102fe60048036038101906102f99190613b1c565b610a3f565b005b61031a60048036038101906103159190613dbf565b610a5f565b005b61033660048036038101906103319190613cb0565b610e38565b005b610352600480360381019061034d9190613de8565b610e5a565b60405161035f9190614536565b60405180910390f35b610382600480360381019061037d9190613ab7565b610f3d565b60405161038f9190614a9b565b60405180910390f35b6103a0611083565b005b6103bc60048036038101906103b79190613dbf565b611097565b005b6103c66113d6565b6040516103d39190614703565b60405180910390f35b6103e46113ed565b6040516103f19190614536565b60405180910390f35b610402611416565b005b61040c61143b565b604051610419919061471e565b60405180910390f35b61043c60048036038101906104379190613be6565b6114cd565b005b61045860048036038101906104539190613dbf565b6114e3565b60405161046591906146bf565b60405180910390f35b61048860048036038101906104839190613b6b565b6116c2565b005b6104a4600480360381019061049f9190613de8565b611724565b6040516104b1919061471e565b60405180910390f35b6104c26117cb565b005b6104de60048036038101906104d99190613ae0565b6117f0565b6040516104eb9190614703565b60405180910390f35b61050e60048036038101906105099190613d58565b611884565b005b61052a60048036038101906105259190613cf1565b611a35565b604051610537919061471e565b60405180910390f35b61055a60048036038101906105559190613ab7565b611ba3565b005b61057660048036038101906105719190613e11565b611c27565b60405161058391906146e1565b60405180910390f35b60007f80ac58cd000000000000000000000000000000000000000000000000000000007bffffffffffffffffffffffffffffffffffffffffffffffffffffffff1916827bffffffffffffffffffffffffffffffffffffffffffffffffffffffff1916148061065757507f5b5e139f000000000000000000000000000000000000000000000000000000007bffffffffffffffffffffffffffffffffffffffffffffffffffffffff1916827bffffffffffffffffffffffffffffffffffffffffffffffffffffffff1916145b80610667575061066682611fe0565b5b9050919050565b60606009805461067d90615005565b80601f01602080910402602001604051908101604052809291908181526020018280546106a990615005565b80156106f65780601f106106cb576101008083540402835291602001916106f6565b820191906000526020600020905b8154815290600101906020018083116106d957829003601f168201915b5050505050905090565b600061070b8261204a565b61074a576040517f08c379a000000000000000000000000000000000000000000000000000000000815260040161074190614940565b60405180910390fd5b6006600083815260200190815260200160002060009054906101000a900473ffffffffffffffffffffffffffffffffffffffff169050919050565b600061079082610e5a565b90508073ffffffffffffffffffffffffffffffffffffffff168373ffffffffffffffffffffffffffffffffffffffff161415610801576040517f08c379a00000000000000000000000000000000000000000000000000000000081526004016107f8906149e0565b60405180910390fd5b8073ffffffffffffffffffffffffffffffffffffffff1661082061205b565b73ffffffffffffffffffffffffffffffffffffffff16148061084f575061084e8161084961205b565b6117f0565b5b61088e576040517f08c379a000000000000000000000000000000000000000000000000000000000815260040161088590614880565b60405180910390fd5b6108988383612063565b505050565b6000600f80549050905090565b6108bb6108b561205b565b8261211c565b6108fa576040517f08c379a00000000000000000000000000000000000000000000000000000000081526004016108f190614a20565b60405180910390fd5b6109058383836121fa565b505050565b60006005600061091861205b565b73ffffffffffffffffffffffffffffffffffffffff1673ffffffffffffffffffffffffffffffffffffffff16815260200190815260200160002060009054906101000a900461ffff16905090565b60606001805480602002602001604051908101604052809291908181526020016000905b82821015610a365783829060005260206000200180546109a990615005565b80601f01602080910402602001604051908101604052809291908181526020018280546109d590615005565b8015610a225780601f106109f757610100808354040283529160200191610a22565b820191906000526020600020905b815481529060010190602001808311610a0557829003601f168201915b50505050508152602001906001019061098a565b50505050905090565b610a5a838383604051806020016040528060008152506116c2565b505050565b6000610a6a826123d9565b9050600260056000610a7a61205b565b73ffffffffffffffffffffffffffffffffffffffff1673ffffffffffffffffffffffffffffffffffffffff16815260200190815260200160002060009054906101000a900461ffff1661ffff1611610b07576040517f08c379a0000000000000000000000000000000000000000000000000000000008152600401610afe90614760565b60405180910390fd5b610b1082612406565b610b4f576040517f08c379a0000000000000000000000000000000000000000000000000000000008152600401610b4690614820565b60405180910390fd5b600360056000610b5d61205b565b73ffffffffffffffffffffffffffffffffffffffff1673ffffffffffffffffffffffffffffffffffffffff16815260200190815260200160002060009054906101000a900461ffff16610bb09190614e1f565b60056000610bbc61205b565b73ffffffffffffffffffffffffffffffffffffffff1673ffffffffffffffffffffffffffffffffffffffff16815260200190815260200160002060006101000a81548161ffff021916908361ffff160217905550610c7260036000846fffffffffffffffffffffffffffffffff166fffffffffffffffffffffffffffffffff16815260200190815260200160002060009054906101000a900473ffffffffffffffffffffffffffffffffffffffff166002612496565b610d08600f600260008467ffffffffffffffff1667ffffffffffffffff1681526020019081526020016000205481548110610cd6577f4e487b7100000000000000000000000000000000000000000000000000000000600052603260045260246000fd5b9060005260206000200160009054906101000a900473ffffffffffffffffffffffffffffffffffffffff166001612496565b600160076000610d1661205b565b73ffffffffffffffffffffffffffffffffffffffff1673ffffffffffffffffffffffffffffffffffffffff1681526020019081526020016000206000846fffffffffffffffffffffffffffffffff166fffffffffffffffffffffffffffffffff16815260200190815260200160002060006101000a81548160ff0219169083151502179055507f9444d3d856536c903e9f09259959f5bb1056d2ba5a4c3d25a70664a9a2ed3d06610dc561205b565b838360056000610dd361205b565b73ffffffffffffffffffffffffffffffffffffffff1673ffffffffffffffffffffffffffffffffffffffff16815260200190815260200160002060009054906101000a900461ffff16604051610e2c949392919061459d565b60405180910390a15050565b610e4061254c565b8060109080519060200190610e56929190613852565b5050565b600080600f8381548110610e97577f4e487b7100000000000000000000000000000000000000000000000000000000600052603260045260246000fd5b9060005260206000200160009054906101000a900473ffffffffffffffffffffffffffffffffffffffff169050600073ffffffffffffffffffffffffffffffffffffffff168173ffffffffffffffffffffffffffffffffffffffff161415610f34576040517f08c379a0000000000000000000000000000000000000000000000000000000008152600401610f2b906148c0565b60405180910390fd5b80915050919050565b60008073ffffffffffffffffffffffffffffffffffffffff168273ffffffffffffffffffffffffffffffffffffffff161415610fae576040517f08c379a0000000000000000000000000000000000000000000000000000000008152600401610fa5906148a0565b60405180910390fd5b6000805b600f80549050811015611079578373ffffffffffffffffffffffffffffffffffffffff16600f8281548110611010577f4e487b7100000000000000000000000000000000000000000000000000000000600052603260045260246000fd5b9060005260206000200160009054906101000a900473ffffffffffffffffffffffffffffffffffffffff1673ffffffffffffffffffffffffffffffffffffffff16141561106657818061106290615068565b9250505b808061107190615068565b915050610fb2565b5080915050919050565b61108b61254c565b61109560006125ca565b565b60006110a2826123d9565b90506000600560006110b261205b565b73ffffffffffffffffffffffffffffffffffffffff1673ffffffffffffffffffffffffffffffffffffffff16815260200190815260200160002060009054906101000a900461ffff1661ffff161161113f576040517f08c379a0000000000000000000000000000000000000000000000000000000008152600401611136906148e0565b60405180910390fd5b61114882612406565b611187576040517f08c379a000000000000000000000000000000000000000000000000000000000815260040161117e90614860565b60405180910390fd5b6005600061119361205b565b73ffffffffffffffffffffffffffffffffffffffff1673ffffffffffffffffffffffffffffffffffffffff168152602001908152602001600020600081819054906101000a900461ffff16809291906111eb90614fdb565b91906101000a81548161ffff021916908361ffff16021790555050600d6000836fffffffffffffffffffffffffffffffff166fffffffffffffffffffffffffffffffff168152602001908152602001600020600081819054906101000a900463ffffffff168092919061125d906150b1565b91906101000a81548163ffffffff021916908363ffffffff1602179055505061133c60036000846fffffffffffffffffffffffffffffffff166fffffffffffffffffffffffffffffffff16815260200190815260200160002060009054906101000a900473ffffffffffffffffffffffffffffffffffffffff166001600a600d6000876fffffffffffffffffffffffffffffffff166fffffffffffffffffffffffffffffffff16815260200190815260200160002060009054906101000a900463ffffffff1661132d9190614d31565b6113379190614c03565b612496565b6113d2600f600260008467ffffffffffffffff1667ffffffffffffffff16815260200190815260200160002054815481106113a0577f4e487b7100000000000000000000000000000000000000000000000000000000600052603260045260246000fd5b9060005260206000200160009054906101000a900473ffffffffffffffffffffffffffffffffffffffff166001612496565b5050565b6000600b60009054906101000a900460ff16905090565b60008060009054906101000a900473ffffffffffffffffffffffffffffffffffffffff16905090565b61141e61254c565b6001600b60006101000a81548160ff021916908315150217905550565b6060600a805461144a90615005565b80601f016020809104026020016040519081016040528092919081815260200182805461147690615005565b80156114c35780601f10611498576101008083540402835291602001916114c3565b820191906000526020600020905b8154815290600101906020018083116114a657829003601f168201915b5050505050905090565b6114df6114d861205b565b838361268e565b5050565b606060011515600760006114f561205b565b73ffffffffffffffffffffffffffffffffffffffff1673ffffffffffffffffffffffffffffffffffffffff1681526020019081526020016000206000846fffffffffffffffffffffffffffffffff166fffffffffffffffffffffffffffffffff16815260200190815260200160002060009054906101000a900460ff161515146115b4576040517f08c379a00000000000000000000000000000000000000000000000000000000081526004016115ab906149c0565b60405180910390fd5b60046000836fffffffffffffffffffffffffffffffff166fffffffffffffffffffffffffffffffff168152602001908152602001600020805480602002602001604051908101604052809291908181526020016000905b828210156116b757838290600052602060002001805461162a90615005565b80601f016020809104026020016040519081016040528092919081815260200182805461165690615005565b80156116a35780601f10611678576101008083540402835291602001916116a3565b820191906000526020600020905b81548152906001019060200180831161168657829003601f168201915b50505050508152602001906001019061160b565b505050509050919050565b6116d36116cd61205b565b8361211c565b611712576040517f08c379a000000000000000000000000000000000000000000000000000000000815260040161170990614a20565b60405180910390fd5b61171e848484846127fb565b50505050565b606061172f8261204a565b61176e576040517f08c379a0000000000000000000000000000000000000000000000000000000008152600401611765906149a0565b60405180910390fd5b6000611778612857565b9050600081511161179857604051806020016040528060008152506117c3565b806117a2846128e9565b6040516020016117b3929190614507565b6040516020818303038152906040525b915050919050565b6117d361254c565b6000600b60006101000a81548160ff021916908315150217905550565b6000600860008473ffffffffffffffffffffffffffffffffffffffff1673ffffffffffffffffffffffffffffffffffffffff16815260200190815260200160002060008373ffffffffffffffffffffffffffffffffffffffff1673ffffffffffffffffffffffffffffffffffffffff16815260200190815260200160002060009054906101000a900460ff16905092915050565b600b60009054906101000a900460ff166118d3576040517f08c379a00000000000000000000000000000000000000000000000000000000081526004016118ca90614a00565b60405180910390fd5b6000835111611917576040517f08c379a000000000000000000000000000000000000000000000000000000000815260040161190e90614920565b60405180910390fd5b60006119238383612a0d565b905061192e81612b23565b611a25576000600f80549050905061194d61194761205b565b82612b57565b61195f61195861205b565b60c8612496565b80600260008467ffffffffffffffff1667ffffffffffffffff168152602001908152602001600020819055507f19265ec0daf01f489fc0252de6f71a955e46104193f024e47b816d37dd6cbcd06119b461205b565b8284600560006119c261205b565b73ffffffffffffffffffffffffffffffffffffffff1673ffffffffffffffffffffffffffffffffffffffff16815260200190815260200160002060009054906101000a900461ffff16604051611a1b94939291906145e2565b60405180910390a1505b611a2f8185612cdf565b50505050565b6060600084905060008484611a4a9190614e53565b67ffffffffffffffff811115611a89577f4e487b7100000000000000000000000000000000000000000000000000000000600052604160045260246000fd5b6040519080825280601f01601f191660200182016040528015611abb5781602001600182028036833780820191505090505b50905060008590505b84811015611b9657828181518110611b05577f4e487b7100000000000000000000000000000000000000000000000000000000600052603260045260246000fd5b602001015160f81c60f81b828783611b1d9190614e53565b81518110611b54577f4e487b7100000000000000000000000000000000000000000000000000000000600052603260045260246000fd5b60200101907effffffffffffffffffffffffffffffffffffffffffffffffffffffffffffff1916908160001a9053508080611b8e90615068565b915050611ac4565b5080925050509392505050565b611bab61254c565b600073ffffffffffffffffffffffffffffffffffffffff168173ffffffffffffffffffffffffffffffffffffffff161415611c1b576040517f08c379a0000000000000000000000000000000000000000000000000000000008152600401611c1290614780565b60405180910390fd5b611c24816125ca565b50565b60606000611c358484612a0d565b90506000600c60008367ffffffffffffffff1667ffffffffffffffff168152602001908152602001600020805480602002602001604051908101604052809291908181526020016000905b82821015611d2c578382906000526020600020018054611c9f90615005565b80601f0160208091040260200160405190810160405280929190818152602001828054611ccb90615005565b8015611d185780601f10611ced57610100808354040283529160200191611d18565b820191906000526020600020905b815481529060010190602001808311611cfb57829003601f168201915b505050505081526020019060010190611c80565b5050505090506000815167ffffffffffffffff811115611d75577f4e487b7100000000000000000000000000000000000000000000000000000000600052604160045260246000fd5b604051908082528060200260200182016040528015611dae57816020015b611d9b6138d8565b815260200190600190039081611d935790505b50905060005b8251811015611fd3576000611dc9858361319d565b90506040518060a00160405280858481518110611e0f577f4e487b7100000000000000000000000000000000000000000000000000000000600052603260045260246000fd5b60200260200101518152602001826fffffffffffffffffffffffffffffffff16815260200160036000846fffffffffffffffffffffffffffffffff166fffffffffffffffffffffffffffffffff16815260200190815260200160002060009054906101000a900473ffffffffffffffffffffffffffffffffffffffff1673ffffffffffffffffffffffffffffffffffffffff16815260200160076000611eb361205b565b73ffffffffffffffffffffffffffffffffffffffff1673ffffffffffffffffffffffffffffffffffffffff1681526020019081526020016000206000846fffffffffffffffffffffffffffffffff166fffffffffffffffffffffffffffffffff16815260200190815260200160002060009054906101000a900460ff161515815260200160046000846fffffffffffffffffffffffffffffffff166fffffffffffffffffffffffffffffffff1681526020019081526020016000208054905063ffffffff16815250838381518110611fb4577f4e487b7100000000000000000000000000000000000000000000000000000000600052603260045260246000fd5b6020026020010181905250508080611fcb90615068565b915050611db4565b5080935050505092915050565b60007f01ffc9a7000000000000000000000000000000000000000000000000000000007bffffffffffffffffffffffffffffffffffffffffffffffffffffffff1916827bffffffffffffffffffffffffffffffffffffffffffffffffffffffff1916149050919050565b600081600f80549050109050919050565b600033905090565b816006600083815260200190815260200160002060006101000a81548173ffffffffffffffffffffffffffffffffffffffff021916908373ffffffffffffffffffffffffffffffffffffffff160217905550808273ffffffffffffffffffffffffffffffffffffffff166120d683610e5a565b73ffffffffffffffffffffffffffffffffffffffff167f8c5be1e5ebec7d5bd14f71427d1e84f3dd0314c0f7b2291e5b200ac8c7c3b92560405160405180910390a45050565b60006121278261204a565b612166576040517f08c379a000000000000000000000000000000000000000000000000000000000815260040161215d90614840565b60405180910390fd5b600061217183610e5a565b90508073ffffffffffffffffffffffffffffffffffffffff168473ffffffffffffffffffffffffffffffffffffffff1614806121e057508373ffffffffffffffffffffffffffffffffffffffff166121c884610700565b73ffffffffffffffffffffffffffffffffffffffff16145b806121f157506121f081856117f0565b5b91505092915050565b8273ffffffffffffffffffffffffffffffffffffffff1661221a82610e5a565b73ffffffffffffffffffffffffffffffffffffffff1614612270576040517f08c379a000000000000000000000000000000000000000000000000000000000815260040161226790614980565b60405180910390fd5b600073ffffffffffffffffffffffffffffffffffffffff168273ffffffffffffffffffffffffffffffffffffffff1614156122e0576040517f08c379a00000000000000000000000000000000000000000000000000000000081526004016122d7906147c0565b60405180910390fd5b6122eb8383836131f2565b6122f6600082612063565b81600f8281548110612331577f4e487b7100000000000000000000000000000000000000000000000000000000600052603260045260246000fd5b9060005260206000200160006101000a81548173ffffffffffffffffffffffffffffffffffffffff021916908373ffffffffffffffffffffffffffffffffffffffff160217905550808273ffffffffffffffffffffffffffffffffffffffff168473ffffffffffffffffffffffffffffffffffffffff167fddf252ad1be2c89b69c2b068fc378daa952ba7f163c4a11628f55a4df523b3ef60405160405180910390a4505050565b6000600e60009054906101000a900463ffffffff1663ffffffff16826123ff9190614ccf565b9050919050565b60008073ffffffffffffffffffffffffffffffffffffffff1660036000846fffffffffffffffffffffffffffffffff166fffffffffffffffffffffffffffffffff16815260200190815260200160002060009054906101000a900473ffffffffffffffffffffffffffffffffffffffff1673ffffffffffffffffffffffffffffffffffffffff1614159050919050565b80600560008473ffffffffffffffffffffffffffffffffffffffff1673ffffffffffffffffffffffffffffffffffffffff16815260200190815260200160002060009054906101000a900461ffff166124ef9190614c03565b600560008473ffffffffffffffffffffffffffffffffffffffff1673ffffffffffffffffffffffffffffffffffffffff16815260200190815260200160002060006101000a81548161ffff021916908361ffff1602179055505050565b61255461205b565b73ffffffffffffffffffffffffffffffffffffffff166125726113ed565b73ffffffffffffffffffffffffffffffffffffffff16146125c8576040517f08c379a00000000000000000000000000000000000000000000000000000000081526004016125bf90614960565b60405180910390fd5b565b60008060009054906101000a900473ffffffffffffffffffffffffffffffffffffffff169050816000806101000a81548173ffffffffffffffffffffffffffffffffffffffff021916908373ffffffffffffffffffffffffffffffffffffffff1602179055508173ffffffffffffffffffffffffffffffffffffffff168173ffffffffffffffffffffffffffffffffffffffff167f8be0079c531659141344cd1fd0a4f28419497f9722a3daafe3b4186f6b6457e060405160405180910390a35050565b8173ffffffffffffffffffffffffffffffffffffffff168373ffffffffffffffffffffffffffffffffffffffff1614156126fd576040517f08c379a00000000000000000000000000000000000000000000000000000000081526004016126f4906147e0565b60405180910390fd5b80600860008573ffffffffffffffffffffffffffffffffffffffff1673ffffffffffffffffffffffffffffffffffffffff16815260200190815260200160002060008473ffffffffffffffffffffffffffffffffffffffff1673ffffffffffffffffffffffffffffffffffffffff16815260200190815260200160002060006101000a81548160ff0219169083151502179055508173ffffffffffffffffffffffffffffffffffffffff168373ffffffffffffffffffffffffffffffffffffffff167f17307eab39ab6107e8899845ad3d59bd9653f200f220920489ca2b5937696c31836040516127ee9190614703565b60405180910390a3505050565b6128068484846121fa565b612812848484846131f7565b612851576040517f08c379a000000000000000000000000000000000000000000000000000000000815260040161284890614740565b60405180910390fd5b50505050565b60606010805461286690615005565b80601f016020809104026020016040519081016040528092919081815260200182805461289290615005565b80156128df5780601f106128b4576101008083540402835291602001916128df565b820191906000526020600020905b8154815290600101906020018083116128c257829003601f168201915b5050505050905090565b6060600060016128f88461338e565b01905060008167ffffffffffffffff81111561293d577f4e487b7100000000000000000000000000000000000000000000000000000000600052604160045260246000fd5b6040519080825280601f01601f19166020018201604052801561296f5781602001600182028036833780820191505090505b509050600082602001820190505b600115612a02578080600190039150507f3031323334353637383961626364656600000000000000000000000000000000600a86061a8153600a85816129ec577f4e487b7100000000000000000000000000000000000000000000000000000000600052601260045260246000fd5b04945060008514156129fd57612a02565b61297d565b819350505050919050565b600080620f424084612a1f9190614d31565b63ffffffff16905060006064620f424083612a3a9190614ddd565b8663ffffffff16612a4b9190614e87565b612a559190614d62565b90506000606482612a669190614ddd565b620f424084612a759190614ddd565b612a7f9190614c91565b90506000620f424086612a929190614d31565b63ffffffff16905060006064620f424083612aad9190614ddd565b8863ffffffff16612abe9190614e87565b612ac89190614d62565b90506000606482612ad99190614ddd565b620f424084612ae89190614ddd565b612af29190614c91565b9050600081633b9aca0086612b079190614ddd565b612b119190614c91565b90508097505050505050505092915050565b600080600260008467ffffffffffffffff1667ffffffffffffffff1681526020019081526020016000205414159050919050565b600073ffffffffffffffffffffffffffffffffffffffff168273ffffffffffffffffffffffffffffffffffffffff161415612bc7576040517f08c379a0000000000000000000000000000000000000000000000000000000008152600401612bbe90614900565b60405180910390fd5b612bd08161204a565b15612c10576040517f08c379a0000000000000000000000000000000000000000000000000000000008152600401612c07906147a0565b60405180910390fd5b612c1c600083836131f2565b600f829080600181540180825580915050600190039060005260206000200160009091909190916101000a81548173ffffffffffffffffffffffffffffffffffffffff021916908373ffffffffffffffffffffffffffffffffffffffff160217905550808273ffffffffffffffffffffffffffffffffffffffff16600073ffffffffffffffffffffffffffffffffffffffff167fddf252ad1be2c89b69c2b068fc378daa952ba7f163c4a11628f55a4df523b3ef60405160405180910390a45050565b6000612cea836135c5565b90506000816fffffffffffffffffffffffffffffffff161415612ff157612d3b83600c60008667ffffffffffffffff1667ffffffffffffffff1681526020019081526020016000208054905061319d565b9050601e82511115612d82576040517f08c379a0000000000000000000000000000000000000000000000000000000008152600401612d7990614a40565b60405180910390fd5b600c60008467ffffffffffffffff1667ffffffffffffffff16815260200190815260200160002082908060018154018082558091505060019003906000526020600020016000909190919091509080519060200190612de2929190613852565b506000600d6000836fffffffffffffffffffffffffffffffff166fffffffffffffffffffffffffffffffff16815260200190815260200160002060006101000a81548163ffffffff021916908363ffffffff160217905550612e4261205b565b60036000836fffffffffffffffffffffffffffffffff166fffffffffffffffffffffffffffffffff16815260200190815260200160002060006101000a81548173ffffffffffffffffffffffffffffffffffffffff021916908373ffffffffffffffffffffffffffffffffffffffff160217905550600160076000612ec561205b565b73ffffffffffffffffffffffffffffffffffffffff1673ffffffffffffffffffffffffffffffffffffffff1681526020019081526020016000206000836fffffffffffffffffffffffffffffffff166fffffffffffffffffffffffffffffffff16815260200190815260200160002060006101000a81548160ff021916908315150217905550612f54836136c8565b7f3b20832b4b707917ac172e7601f5f4cddbcbd3cb35bcfb2edff6aba5b6751cea612f7d61205b565b848360056000612f8b61205b565b73ffffffffffffffffffffffffffffffffffffffff1673ffffffffffffffffffffffffffffffffffffffff16815260200190815260200160002060009054906101000a900461ffff16604051612fe4949392919061467a565b60405180910390a1613198565b600e60049054906101000a900463ffffffff1663ffffffff1660046000836fffffffffffffffffffffffffffffffff166fffffffffffffffffffffffffffffffff1681526020019081526020016000208054905010613085576040517f08c379a000000000000000000000000000000000000000000000000000000000815260040161307c90614800565b60405180910390fd5b60046000826fffffffffffffffffffffffffffffffff166fffffffffffffffffffffffffffffffff168152602001908152602001600020829080600181540180825580915050600190039060005260206000200160009091909190915090805190602001906130f5929190613852565b507fac28c5340525280410c20c660a1bae85b8c8729f4a700be0f003c94892bb73db61311f61205b565b848385805190602001206005600061313561205b565b73ffffffffffffffffffffffffffffffffffffffff1673ffffffffffffffffffffffffffffffffffffffff16815260200190815260200160002060009054906101000a900461ffff1660405161318f959493929190614627565b60405180910390a15b505050565b6000600e60009054906101000a900463ffffffff1663ffffffff168367ffffffffffffffff166131cd9190614d93565b6fffffffffffffffffffffffffffffffff16826131ea9190614c3b565b905092915050565b505050565b60006132188473ffffffffffffffffffffffffffffffffffffffff1661382f565b15613381578373ffffffffffffffffffffffffffffffffffffffff1663150b7a0261324161205b565b8786866040518563ffffffff1660e01b81526004016132639493929190614551565b602060405180830381600087803b15801561327d57600080fd5b505af19250505080156132ae57506040513d601f19601f820116820180604052508101906132ab9190613c87565b60015b613331573d80600081146132de576040519150601f19603f3d011682016040523d82523d6000602084013e6132e3565b606091505b50600081511415613329576040517f08c379a000000000000000000000000000000000000000000000000000000000815260040161332090614740565b60405180910390fd5b805181602001fd5b63150b7a0260e01b7bffffffffffffffffffffffffffffffffffffffffffffffffffffffff1916817bffffffffffffffffffffffffffffffffffffffffffffffffffffffff191614915050613386565b600190505b949350505050565b600080600090507a184f03e93ff9f4daa797ed6e38ed64bf6a1f0100000000000000008310613412577a184f03e93ff9f4daa797ed6e38ed64bf6a1f0100000000000000008381613408577f4e487b7100000000000000000000000000000000000000000000000000000000600052601260045260246000fd5b0492506040810190505b6d04ee2d6d415b85acef81000000008310613475576d04ee2d6d415b85acef8100000000838161346b577f4e487b7100000000000000000000000000000000000000000000000000000000600052601260045260246000fd5b0492506020810190505b662386f26fc1000083106134ca57662386f26fc1000083816134c0577f4e487b7100000000000000000000000000000000000000000000000000000000600052601260045260246000fd5b0492506010810190505b6305f5e1008310613519576305f5e100838161350f577f4e487b7100000000000000000000000000000000000000000000000000000000600052601260045260246000fd5b0492506008810190505b612710831061356457612710838161355a577f4e487b7100000000000000000000000000000000000000000000000000000000600052601260045260246000fd5b0492506004810190505b606483106135ad57606483816135a3577f4e487b7100000000000000000000000000000000000000000000000000000000600052601260045260246000fd5b0492506002810190505b600a83106135bc576001810190505b80915050919050565b600080600090505b600c60008467ffffffffffffffff1667ffffffffffffffff168152602001908152602001600020805490508110156136bd57600061360b848361319d565b905061361561205b565b73ffffffffffffffffffffffffffffffffffffffff1660036000836fffffffffffffffffffffffffffffffff166fffffffffffffffffffffffffffffffff16815260200190815260200160002060009054906101000a900473ffffffffffffffffffffffffffffffffffffffff1673ffffffffffffffffffffffffffffffffffffffff1614156136a95780925050506136c3565b5080806136b590615068565b9150506135cd565b50600090505b919050565b6000600a600c60008467ffffffffffffffff1667ffffffffffffffff168152602001908152602001600020805490506137019190614d00565b601461370d9190614c03565b90508061ffff166005600061372061205b565b73ffffffffffffffffffffffffffffffffffffffff1673ffffffffffffffffffffffffffffffffffffffff16815260200190815260200160002060009054906101000a900461ffff1661ffff1610156137ae576040517f08c379a00000000000000000000000000000000000000000000000000000000081526004016137a590614a60565b60405180910390fd5b80600560006137bb61205b565b73ffffffffffffffffffffffffffffffffffffffff1673ffffffffffffffffffffffffffffffffffffffff16815260200190815260200160002060008282829054906101000a900461ffff166138119190614e1f565b92506101000a81548161ffff021916908361ffff1602179055505050565b6000808273ffffffffffffffffffffffffffffffffffffffff163b119050919050565b82805461385e90615005565b90600052602060002090601f01602090048101928261388057600085556138c7565b82601f1061389957805160ff19168380011785556138c7565b828001600101855582156138c7579182015b828111156138c65782518255916020019190600101906138ab565b5b5090506138d49190613937565b5090565b6040518060a001604052806060815260200160006fffffffffffffffffffffffffffffffff168152602001600073ffffffffffffffffffffffffffffffffffffffff168152602001600015158152602001600063ffffffff1681525090565b5b80821115613950576000816000905550600101613938565b5090565b600061396761396284614adb565b614ab6565b90508281526020810184848401111561397f57600080fd5b61398a848285614f99565b509392505050565b60006139a56139a084614b0c565b614ab6565b9050828152602081018484840111156139bd57600080fd5b6139c8848285614f99565b509392505050565b6000813590506139df8161598e565b92915050565b6000813590506139f4816159a5565b92915050565b600081359050613a09816159bc565b92915050565b600081519050613a1e816159bc565b92915050565b600082601f830112613a3557600080fd5b8135613a45848260208601613954565b91505092915050565b600082601f830112613a5f57600080fd5b8135613a6f848260208601613992565b91505092915050565b600081359050613a87816159d3565b92915050565b600081359050613a9c816159ea565b92915050565b600081359050613ab181615a01565b92915050565b600060208284031215613ac957600080fd5b6000613ad7848285016139d0565b91505092915050565b60008060408385031215613af357600080fd5b6000613b01858286016139d0565b9250506020613b12858286016139d0565b9150509250929050565b600080600060608486031215613b3157600080fd5b6000613b3f868287016139d0565b9350506020613b50868287016139d0565b9250506040613b6186828701613a8d565b9150509250925092565b60008060008060808587031215613b8157600080fd5b6000613b8f878288016139d0565b9450506020613ba0878288016139d0565b9350506040613bb187828801613a8d565b925050606085013567ffffffffffffffff811115613bce57600080fd5b613bda87828801613a24565b91505092959194509250565b60008060408385031215613bf957600080fd5b6000613c07858286016139d0565b9250506020613c18858286016139e5565b9150509250929050565b60008060408385031215613c3557600080fd5b6000613c43858286016139d0565b9250506020613c5485828601613a8d565b9150509250929050565b600060208284031215613c7057600080fd5b6000613c7e848285016139fa565b91505092915050565b600060208284031215613c9957600080fd5b6000613ca784828501613a0f565b91505092915050565b600060208284031215613cc257600080fd5b600082013567ffffffffffffffff811115613cdc57600080fd5b613ce884828501613a4e565b91505092915050565b600080600060608486031215613d0657600080fd5b600084013567ffffffffffffffff811115613d2057600080fd5b613d2c86828701613a4e565b9350506020613d3d86828701613a8d565b9250506040613d4e86828701613a8d565b9150509250925092565b600080600060608486031215613d6d57600080fd5b600084013567ffffffffffffffff811115613d8757600080fd5b613d9386828701613a4e565b9350506020613da486828701613aa2565b9250506040613db586828701613aa2565b9150509250925092565b600060208284031215613dd157600080fd5b6000613ddf84828501613a78565b91505092915050565b600060208284031215613dfa57600080fd5b6000613e0884828501613a8d565b91505092915050565b60008060408385031215613e2457600080fd5b6000613e3285828601613aa2565b9250506020613e4385828601613aa2565b9150509250929050565b6000613e598383613fe3565b905092915050565b6000613e6d8383614437565b905092915050565b613e7e81614ebb565b82525050565b613e8d81614ebb565b82525050565b6000613e9e82614b5d565b613ea88185614ba3565b935083602082028501613eba85614b3d565b8060005b85811015613ef65784840389528151613ed78582613e4d565b9450613ee283614b89565b925060208a01995050600181019050613ebe565b50829750879550505050505092915050565b6000613f1382614b68565b613f1d8185614bb4565b935083602082028501613f2f85614b4d565b8060005b85811015613f6b5784840389528151613f4c8582613e61565b9450613f5783614b96565b925060208a01995050600181019050613f33565b50829750879550505050505092915050565b613f8681614ecd565b82525050565b613f9581614ecd565b82525050565b613fa481614ed9565b82525050565b6000613fb582614b73565b613fbf8185614bc5565b9350613fcf818560208601614fa8565b613fd88161519a565b840191505092915050565b6000613fee82614b7e565b613ff88185614bd6565b9350614008818560208601614fa8565b6140118161519a565b840191505092915050565b600061402782614b7e565b6140318185614be7565b9350614041818560208601614fa8565b61404a8161519a565b840191505092915050565b600061406082614b7e565b61406a8185614bf8565b935061407a818560208601614fa8565b80840191505092915050565b6000614093603283614be7565b915061409e826151ab565b604082019050919050565b60006140b6604a83614be7565b91506140c1826151fa565b606082019050919050565b60006140d9602683614be7565b91506140e48261526f565b604082019050919050565b60006140fc601c83614be7565b9150614107826152be565b602082019050919050565b600061411f602483614be7565b915061412a826152e7565b604082019050919050565b6000614142601983614be7565b915061414d82615336565b602082019050919050565b6000614165603b83614be7565b91506141708261535f565b604082019050919050565b6000614188604c83614be7565b9150614193826153ae565b606082019050919050565b60006141ab602c83614be7565b91506141b682615423565b604082019050919050565b60006141ce604983614be7565b91506141d982615472565b606082019050919050565b60006141f1603883614be7565b91506141fc826154e7565b604082019050919050565b6000614214602a83614be7565b915061421f82615536565b604082019050919050565b6000614237602983614be7565b915061424282615585565b604082019050919050565b600061425a602b83614be7565b9150614265826155d4565b604082019050919050565b600061427d602083614be7565b915061428882615623565b602082019050919050565b60006142a0602683614be7565b91506142ab8261564c565b604082019050919050565b60006142c3602c83614be7565b91506142ce8261569b565b604082019050919050565b60006142e6600583614bf8565b91506142f1826156ea565b600582019050919050565b6000614309602083614be7565b915061431482615713565b602082019050919050565b600061432c602983614be7565b91506143378261573c565b604082019050919050565b600061434f602f83614be7565b915061435a8261578b565b604082019050919050565b6000614372603183614be7565b915061437d826157da565b604082019050919050565b6000614395602183614be7565b91506143a082615829565b604082019050919050565b60006143b8602783614be7565b91506143c382615878565b604082019050919050565b60006143db603183614be7565b91506143e6826158c7565b604082019050919050565b60006143fe603183614be7565b915061440982615916565b604082019050919050565b6000614421601783614be7565b915061442c82615965565b602082019050919050565b600060a08301600083015184820360008601526144548282613fe3565b915050602083015161446960208601826144ad565b50604083015161447c6040860182613e75565b50606083015161448f6060860182613f7d565b5060808301516144a260808601826144e9565b508091505092915050565b6144b681614f0f565b82525050565b6144c581614f87565b82525050565b6144d481614f2b565b82525050565b6144e381614f59565b82525050565b6144f281614f63565b82525050565b61450181614f73565b82525050565b60006145138285614055565b915061451f8284614055565b915061452a826142d9565b91508190509392505050565b600060208201905061454b6000830184613e84565b92915050565b60006080820190506145666000830187613e84565b6145736020830186613e84565b61458060408301856144da565b81810360608301526145928184613faa565b905095945050505050565b60006080820190506145b26000830187613e84565b6145bf60208301866144bc565b6145cc60408301856144f8565b6145d960608301846144cb565b95945050505050565b60006080820190506145f76000830187613e84565b61460460208301866144da565b61461160408301856144f8565b61461e60608301846144cb565b95945050505050565b600060a08201905061463c6000830188613e84565b61464960208301876144f8565b61465660408301866144bc565b6146636060830185613f9b565b61467060808301846144cb565b9695505050505050565b600060808201905061468f6000830187613e84565b61469c60208301866144f8565b6146a960408301856144bc565b6146b660608301846144cb565b95945050505050565b600060208201905081810360008301526146d98184613e93565b905092915050565b600060208201905081810360008301526146fb8184613f08565b905092915050565b60006020820190506147186000830184613f8c565b92915050565b60006020820190508181036000830152614738818461401c565b905092915050565b6000602082019050818103600083015261475981614086565b9050919050565b60006020820190508181036000830152614779816140a9565b9050919050565b60006020820190508181036000830152614799816140cc565b9050919050565b600060208201905081810360008301526147b9816140ef565b9050919050565b600060208201905081810360008301526147d981614112565b9050919050565b600060208201905081810360008301526147f981614135565b9050919050565b6000602082019050818103600083015261481981614158565b9050919050565b600060208201905081810360008301526148398161417b565b9050919050565b600060208201905081810360008301526148598161419e565b9050919050565b60006020820190508181036000830152614879816141c1565b9050919050565b60006020820190508181036000830152614899816141e4565b9050919050565b600060208201905081810360008301526148b981614207565b9050919050565b600060208201905081810360008301526148d98161422a565b9050919050565b600060208201905081810360008301526148f98161424d565b9050919050565b6000602082019050818103600083015261491981614270565b9050919050565b6000602082019050818103600083015261493981614293565b9050919050565b60006020820190508181036000830152614959816142b6565b9050919050565b60006020820190508181036000830152614979816142fc565b9050919050565b600060208201905081810360008301526149998161431f565b9050919050565b600060208201905081810360008301526149b981614342565b9050919050565b600060208201905081810360008301526149d981614365565b9050919050565b600060208201905081810360008301526149f981614388565b9050919050565b60006020820190508181036000830152614a19816143ab565b9050919050565b60006020820190508181036000830152614a39816143ce565b9050919050565b60006020820190508181036000830152614a59816143f1565b9050919050565b60006020820190508181036000830152614a7981614414565b9050919050565b6000602082019050614a9560008301846144cb565b92915050565b6000602082019050614ab060008301846144da565b92915050565b6000614ac0614ad1565b9050614acc8282615037565b919050565b6000604051905090565b600067ffffffffffffffff821115614af657614af561516b565b5b614aff8261519a565b9050602081019050919050565b600067ffffffffffffffff821115614b2757614b2661516b565b5b614b308261519a565b9050602081019050919050565b6000819050602082019050919050565b6000819050602082019050919050565b600081519050919050565b600081519050919050565b600081519050919050565b600081519050919050565b6000602082019050919050565b6000602082019050919050565b600082825260208201905092915050565b600082825260208201905092915050565b600082825260208201905092915050565b600082825260208201905092915050565b600082825260208201905092915050565b600081905092915050565b6000614c0e82614f2b565b9150614c1983614f2b565b92508261ffff03821115614c3057614c2f6150de565b5b828201905092915050565b6000614c4682614f59565b9150614c5183614f59565b9250827fffffffffffffffffffffffffffffffffffffffffffffffffffffffffffffffff03821115614c8657614c856150de565b5b828201905092915050565b6000614c9c82614f73565b9150614ca783614f73565b92508267ffffffffffffffff03821115614cc457614cc36150de565b5b828201905092915050565b6000614cda82614f0f565b9150614ce583614f0f565b925082614cf557614cf461510d565b5b828204905092915050565b6000614d0b82614f59565b9150614d1683614f59565b925082614d2657614d2561510d565b5b828204905092915050565b6000614d3c82614f63565b9150614d4783614f63565b925082614d5757614d5661510d565b5b828204905092915050565b6000614d6d82614f73565b9150614d7883614f73565b925082614d8857614d8761510d565b5b828204905092915050565b6000614d9e82614f0f565b9150614da983614f0f565b9250816fffffffffffffffffffffffffffffffff0483118215151615614dd257614dd16150de565b5b828202905092915050565b6000614de882614f73565b9150614df383614f73565b92508167ffffffffffffffff0483118215151615614e1457614e136150de565b5b828202905092915050565b6000614e2a82614f2b565b9150614e3583614f2b565b925082821015614e4857614e476150de565b5b828203905092915050565b6000614e5e82614f59565b9150614e6983614f59565b925082821015614e7c57614e7b6150de565b5b828203905092915050565b6000614e9282614f73565b9150614e9d83614f73565b925082821015614eb057614eaf6150de565b5b828203905092915050565b6000614ec682614f39565b9050919050565b60008115159050919050565b6000819050919050565b60007fffffffff0000000000000000000000000000000000000000000000000000000082169050919050565b60006fffffffffffffffffffffffffffffffff82169050919050565b600061ffff82169050919050565b600073ffffffffffffffffffffffffffffffffffffffff82169050919050565b6000819050919050565b600063ffffffff82169050919050565b600067ffffffffffffffff82169050919050565b6000614f9282614f0f565b9050919050565b82818337600083830152505050565b60005b83811015614fc6578082015181840152602081019050614fab565b83811115614fd5576000848401525b50505050565b6000614fe682614f2b565b91506000821415614ffa57614ff96150de565b5b600182039050919050565b6000600282049050600182168061501d57607f821691505b602082108114156150315761503061513c565b5b50919050565b6150408261519a565b810181811067ffffffffffffffff8211171561505f5761505e61516b565b5b80604052505050565b600061507382614f59565b91507fffffffffffffffffffffffffffffffffffffffffffffffffffffffffffffffff8214156150a6576150a56150de565b5b600182019050919050565b60006150bc82614f63565b915063ffffffff8214156150d3576150d26150de565b5b600182019050919050565b7f4e487b7100000000000000000000000000000000000000000000000000000000600052601160045260246000fd5b7f4e487b7100000000000000000000000000000000000000000000000000000000600052601260045260246000fd5b7f4e487b7100000000000000000000000000000000000000000000000000000000600052602260045260246000fd5b7f4e487b7100000000000000000000000000000000000000000000000000000000600052604160045260246000fd5b6000601f19601f8301169050919050565b7f4552433732313a207472616e7366657220746f206e6f6e20455243373231526560008201527f63656976657220696d706c656d656e7465720000000000000000000000000000602082015250565b7f5b52513030335d20596f7520646f6e2774206861766520656e6f75676820666160008201527f6d652120286174206c65617374203320726571756972656420666f722074686960208201527f7320616374696f6e292e00000000000000000000000000000000000000000000604082015250565b7f4f776e61626c653a206e6577206f776e657220697320746865207a65726f206160008201527f6464726573730000000000000000000000000000000000000000000000000000602082015250565b7f4552433732313a20746f6b656e20616c7265616479206d696e74656400000000600082015250565b7f4552433732313a207472616e7366657220746f20746865207a65726f2061646460008201527f7265737300000000000000000000000000000000000000000000000000000000602082015250565b7f4552433732313a20617070726f766520746f2063616c6c657200000000000000600082015250565b7f5b52513031315d20746869732063616368652069732066756c6c2c20796f752060008201527f63616e6e6f74207772697465206d6f7265206d65737361676573210000000000602082015250565b7f5b52513030345d20596f752061726520747279696e6720746f20756e6c6f636b60008201527f2061206d6573736167652066726f6d20612073706f742074686174206861732060208201527f6e6f206d65737361676573210000000000000000000000000000000000000000604082015250565b7f4552433732313a206f70657261746f7220717565727920666f72206e6f6e657860008201527f697374656e7420746f6b656e0000000000000000000000000000000000000000602082015250565b7f5b52513030375d20746865206d65737361676520796f7520617265207472796960008201527f6e6720746f20766f7465206f6e20646f6573206e6f7420657869737420696e2060208201527f746869732073706f740000000000000000000000000000000000000000000000604082015250565b7f4552433732313a20617070726f76652063616c6c6572206973206e6f74206f7760008201527f6e6572206e6f7220617070726f76656420666f7220616c6c0000000000000000602082015250565b7f4552433732313a2062616c616e636520717565727920666f7220746865207a6560008201527f726f206164647265737300000000000000000000000000000000000000000000602082015250565b7f4552433732313a206f776e657220717565727920666f72206e6f6e657869737460008201527f656e7420746f6b656e0000000000000000000000000000000000000000000000602082015250565b7f5b52513030365d20796f7520646f206e6f74206861766520656e6f756768206660008201527f616d6520746f20766f7465000000000000000000000000000000000000000000602082015250565b7f4552433732313a206d696e7420746f20746865207a65726f2061646472657373600082015250565b7f5b52513030325d20596f752063616e6e6f74206d696e7420656d707479206d6560008201527f7373616765730000000000000000000000000000000000000000000000000000602082015250565b7f4552433732313a20617070726f76656420717565727920666f72206e6f6e657860008201527f697374656e7420746f6b656e0000000000000000000000000000000000000000602082015250565b7f2e6a736f6e000000000000000000000000000000000000000000000000000000600082015250565b7f4f776e61626c653a2063616c6c6572206973206e6f7420746865206f776e6572600082015250565b7f4552433732313a207472616e73666572206f6620746f6b656e2074686174206960008201527f73206e6f74206f776e0000000000000000000000000000000000000000000000602082015250565b7f4552433732314d657461646174613a2055524920717565727920666f72206e6f60008201527f6e6578697374656e7420746f6b656e0000000000000000000000000000000000602082015250565b7f5b52513030355d2074686973206d65737361676520776173206e65766572207560008201527f6e6c6f636b656420776974682066616d65000000000000000000000000000000602082015250565b7f4552433732313a20617070726f76616c20746f2063757272656e74206f776e6560008201527f7200000000000000000000000000000000000000000000000000000000000000602082015250565b7f5b52513030315d204d696e74696e672069732063757272656e746c79206e6f7460008201527f2061637469766500000000000000000000000000000000000000000000000000602082015250565b7f4552433732313a207472616e736665722063616c6c6572206973206e6f74206f60008201527f776e6572206e6f7220617070726f766564000000000000000000000000000000602082015250565b7f5b52513031305d2061206361636865206e616d652063616e6e6f74206578636560008201527f6564203135206368617261637465727321000000000000000000000000000000602082015250565b7f5b52513030385d206e6f7420656e6f7567682066616d65000000000000000000600082015250565b61599781614ebb565b81146159a257600080fd5b50565b6159ae81614ecd565b81146159b957600080fd5b50565b6159c581614ee3565b81146159d057600080fd5b50565b6159dc81614f0f565b81146159e757600080fd5b50565b6159f381614f59565b81146159fe57600080fd5b50565b615a0a81614f63565b8114615a1557600080fd5b5056fea26469706673582212200623dd199dc98e2801195dcdf75f60eec682c6f76f6205a939f0ae7d2c48f66264736f6c6343000801003361206361636865206e616d652063616e6e6f74206578636565642031352063686172616374657273215b52513031315d796f7520646f206e6f74206861766520656e6f7567682066616d6520746f20766f746574686973206d65737361676520776173206e6576657220756e6c6f636b656420776974682066616d65796f7520646f206e6f74206861766520616e79206361636865636f696e7320666f7220746869732073706f7421596f752061726520747279696e6720746f20756e6c6f636b2061206d6573736167652066726f6d20612073706f74207468617420686173206e6f206d6573736167657321596f7520646f6e2774206861766520656e6f7567682066616d652120286174206c65617374203120726571756972656420666f72207468697320616374696f6e29746869732063616368652069732066756c6c2c20796f752063616e6e6f74207772697465206d6f7265206d6573736167657321746865206d65737361676520796f752061726520747279696e6720746f20766f7465206f6e20646f6573206e6f7420657869737420696e20746869732073706f74",
  "immutableReferences": {},
  "source": "//SPDX-License-Identifier: MIT\n\npragma solidity ^0.8.0;\nimport \"@openzeppelin/contracts/token/ERC721/IERC721.sol\";\nimport \"@openzeppelin/contracts/token/ERC721/IERC721Receiver.sol\";\nimport \"@openzeppelin/contracts/token/ERC721/extensions/IERC721Metadata.sol\";\nimport \"@openzeppelin/contracts/utils/Address.sol\";\nimport \"@openzeppelin/contracts/utils/Context.sol\";\nimport \"@openzeppelin/contracts/utils/Strings.sol\";\nimport \"@openzeppelin/contracts/utils/introspection/ERC165.sol\";\nimport \"@openzeppelin/contracts/access/Ownable.sol\";\n\n/**\n * @dev Implementation of https://eips.ethereum.org/EIPS/eip-721[ERC721] Non-Fungible Token Standard, including\n * the Metadata extension, but not including the Enumerable extension, which is available separately as\n * {ERC721Enumerable}.\n */\ncontract MetaTrail is Context, ERC165, IERC721, IERC721Metadata, Ownable {\n    using Address for address;\n    using Strings for uint256;\n\n    constructor() {\n        _name = \"MetaTrail\";\n        _symbol = \"mtrl\";\n\n        _isMintingActive = true;\n    }\n\n    struct CacheContainer {\n        string title;\n        uint128 tokenId;\n        address author;\n        bool unlocked;\n        uint32 quantity;\n    }\n\n    //TODO FAME-SPOT-TREASURE (SPOT INITIALIZED  WITH FAME THAT IS DISTRIBUTABLE)\n\n    //POSSIBLE MESSAGE CODES AND MEANINGS\n    string[] _requireCodes = \n    [\n        \"[RQ001]\", \"Minting is currently not active\",\n        \"[RQ002]\", \"You cannot mint empty messages\",\n        \"[RQ003]\", \"You don't have enough fame! (at least 1 required for this action)\",\n        \"[RQ004]\", \"You are trying to unlock a message from a spot that has no messages!\",\n        \"[RQ005]\", \"this message was never unlocked with fame\",\n        \"[RQ006]\", \"you do not have enough fame to vote\",        \n        \"[RQ007]\", \"the message you are trying to vote on does not exist in this spot\",\n        \"[RQ008]\", \"not enough fame\",\n        \"[RQ009]\", \"you do not have any cachecoins for this spot!\",\n        \"[RQ010]\", \"a cache name cannot exceed 15 characters!\"\n        \"[RQ011]\", \"this cache is full, you cannot write more messages!\"\n    ];  \n\n    // Mapping from SpotId to TokenId\n    mapping(uint64 => uint256) private _claimedSpots;\n\n    // Mapping owner to cacheTokenId\n    mapping(uint128 => address) private _cacheCreators;\n\n    mapping(uint128 => string[]) private _cacheEntries;\n\n    // Mapping of owners to famecoints\n    mapping(address => uint16) private _fameWallet;\n\n    // Mapping from token ID to approved address\n    mapping(uint256 => address) private _tokenApprovals;\n\n    // Mapping from token ID to approved address\n    mapping(address => mapping(uint128 => bool)) private _ownerUnlockedCaches;\n\n    // Mapping from owner to operator approvals\n    mapping(address => mapping(address => bool)) internal _operatorApprovals;\n\n    string private _name;\n\n    string private _symbol;\n\n    bool private _isMintingActive = true;\n\n    //fileHash to txHash\n    //spotId to message array\n    mapping(uint64 => string[]) _spotCaches; //index is cacheIndex, cacheIndex + spotId is cacheId\n\n    //messagetokenid to vote amt\n    mapping(uint128 => uint32) _voteWallet;\n\n    //future plans\n    uint32 _maxCacheTokenPerSpot = 1000;\n    uint32 _maxEntriesPerCache = 10000000;\n\n    address[] internal _owners;\n    string _baseURL;\n\n    event MintedEntry(address sender, uint64 spotId, uint256 cacheTokenId,bytes32 entryHash, uint16 currentFameBalance);\n    event MintedCache(address sender, uint64 spotId, uint256 cacheTokenId, uint16 currentFameBalance);\n    event SpotClaimed(address sender, uint256 tokenId, uint64 spotId, uint16 currentFameBalance);\n    event UnlockedCache(address sender, uint256 cacheTokenId, uint64 spotId, uint16 currentFameBalance);\n\n    function setBaseURI(string memory uri) public onlyOwner {\n        _baseURL = uri;\n    }\n\n    function getIsMintingActive() public view returns (bool) {\n        return _isMintingActive;\n    }\n\n    function setIsMintingActive() public onlyOwner {\n        _isMintingActive = true;\n    }\n\n    function setIsMintingInactive() public onlyOwner {\n        _isMintingActive = false;\n    }\n\n    function getPossibleRevertMessages() public view returns (string[] memory)\n    {\n    return _requireCodes;\n    }\n\n    function mintEntry(\n        string memory uniCodeMessage,\n        uint32 longitude,\n        uint32 latitude\n    ) public {\n        require(_isMintingActive,  \"[RQ001] Minting is currently not active\");\n        require(bytes(uniCodeMessage).length > 0,\"[RQ002] You cannot mint empty messages\");\n\n        uint64 spotId = _getSpotIdForCoordinates(longitude, latitude);\n\n        if (!_existsSpot(spotId)) {\n            uint256 tokenId = _owners.length;\n            _mint(_msgSender(), tokenId);\n            \n            _addFame(_msgSender(), 200);\n            _claimedSpots[spotId] = tokenId;\n            emit SpotClaimed(_msgSender(), tokenId, spotId,_fameWallet[_msgSender()]);\n        }\n\n        _mintEntryOnSpot(spotId, uniCodeMessage);\n    }\n\n    function getCachesForSpot(uint32 longitude, uint32 latitude)\n        public\n        view\n        returns (CacheContainer[] memory)\n    {\n        uint64 spotId = _getSpotIdForCoordinates(longitude, latitude);\n        string[] memory cachesForSpot = _spotCaches[spotId];\n        CacheContainer[] memory caches = new CacheContainer[](\n            cachesForSpot.length\n        );\n\n        for (uint256 cacheIndex = 0; cacheIndex < cachesForSpot.length; cacheIndex++) {\n\n            uint128 cacheTokenId = _getCacheTokenIdFromSpotIdAndCacheIndex(spotId,cacheIndex);\n\n            caches[cacheIndex] = CacheContainer(\n                cachesForSpot[cacheIndex],\n                cacheTokenId,\n                _cacheCreators[cacheTokenId],\n                _ownerUnlockedCaches[_msgSender()][cacheTokenId],\n                uint32(_cacheEntries[cacheTokenId].length)\n            );\n        }\n\n        return caches;\n    }\n\n    //this is important for fame distribution, glory leads to glamour\n    function unlockCache(uint128 cacheTokenId)\n        public\n    {\n        uint64 spotId = _getSpotIdFromCacheTokenId(cacheTokenId);\n        require(_fameWallet[_msgSender()] > 2,      \"[RQ003] You don't have enough fame! (at least 3 required for this action).\" );\n        require(_existsCache(cacheTokenId),   \"[RQ004] You are trying to unlock a message from a spot that has no messages!\");\n        \n        _fameWallet[_msgSender()] = _fameWallet[_msgSender()] - 3;\n\n        _addFame(_cacheCreators[cacheTokenId], 2); // an upvote earns you 2 fame\n        _addFame(_owners[_claimedSpots[spotId]], 1); // an upvote earns the spot owner 1 fame\n\n\n        _ownerUnlockedCaches[_msgSender()][cacheTokenId] = true;\n        \n        emit UnlockedCache(_msgSender(),cacheTokenId,spotId,_fameWallet[_msgSender()]);\n\n    }\n\n    function getUnlockedCacheEntries(uint128 cacheTokenId) public view returns (string[] memory)\n    {\n        require(_ownerUnlockedCaches[_msgSender()][cacheTokenId] == true, '[RQ005] this message was never unlocked with fame');\n        \n        return _cacheEntries[cacheTokenId];\n    }\n\n    function _existsCache(uint128 cacheTokenId) internal view returns (bool)\n    {\n       return _cacheCreators[cacheTokenId] != address(0);\n    }\n\n    function upvoteCache(uint128 cacheTokenId) public {\n        uint64 spotId = _getSpotIdFromCacheTokenId(cacheTokenId);\n        require(_fameWallet[_msgSender()] > 0,'[RQ006] you do not have enough fame to vote');\n        require(_existsCache(cacheTokenId) \n                ,'[RQ007] the message you are trying to vote on does not exist in this spot');\n\n        _fameWallet[_msgSender()]--;\n        _voteWallet[cacheTokenId]++;\n\n        _addFame(\n            _cacheCreators[cacheTokenId],\n            ((uint16)(_voteWallet[cacheTokenId] / 10)) + 1\n        ); // an upvote earns you 1 famecoins and the amount of upvotes divided by ten\n        _addFame(_owners[_claimedSpots[spotId]], 1); // an upvote earns the spot owner 1 famecoin\n    }\n\n\n\n    function getFameBalance() public view returns (uint16) {\n        return _fameWallet[_msgSender()];\n    }\n\n\n    function _getSpotIdForCoordinates(uint32 longitude, uint32 latitude)\n        internal\n        pure\n        returns (uint64)\n    {\n        //app has to transmit the last 6 characters after decimal point of coordinate\n        uint64 longAngle = uint64(longitude / 1000000); //starting from a point on the poles, draw lines in this angle along the longitude of earth\n        uint64 longDecimal100sqm = uint64((longitude - (longAngle * 1000000)) / 100);\n        //longDecimal100sqm needs a transformation --> 10/90 * angel * 100 === 100m for a millionth decimal digit //adapt to changing spot sizes when nearing the poles (imagine a grid on the planet)\n\n        uint64 longSpot = longAngle * 1000000 + longDecimal100sqm * 100;\n        uint64 latAngle = uint64(latitude / 1000000);\n        uint64 latDecimal100sqm = uint64((latitude - latAngle * 1000000) / 100); //size of a grid element\n        uint64 latSpot = latAngle * 1000000 + latDecimal100sqm * 100;\n        uint64 spotId = longSpot * 1000000000 + latSpot; //longSpot is shifted left and latSpot is added\n        return spotId;\n    }\n\n    function _existsSpot(uint64 spotId) internal view returns (bool) {\n        return _claimedSpots[spotId] != 0;\n    }\n\n\n\n    function _substring(\n        string memory str,\n        uint256 startIndex,\n        uint256 endIndex\n    ) public pure returns (string memory) {\n        bytes memory strBytes = bytes(str);\n        bytes memory result = new bytes(endIndex - startIndex);\n        for (uint256 i = startIndex; i < endIndex; i++) {\n            result[i - startIndex] = strBytes[i];\n        }\n        return string(result);\n    }\n\n\n    function _getCacheIndexFromCacheTokenId(uint128 cacheTokenId)\n        internal\n        view\n        returns (uint32)\n    {\n        return\n            uint32(cacheTokenId - uint128(cacheTokenId / _maxCacheTokenPerSpot) * _maxCacheTokenPerSpot);\n    }\n\n    function _payCacheCreationCost(uint64 spotId) internal {\n        uint16 cost =  uint16(20 + uint16(_spotCaches[spotId].length / 10));\n        require(_fameWallet[_msgSender()] >= cost,'[RQ008] not enough fame');\n\n        _fameWallet[_msgSender()] -= cost; // means, 2 messages in this spot cost nothing extra, 20 will cost 2 extra, 100 will cost 10 extra\n\n    }\n\n    function _getSpotIdFromCacheTokenId(uint128 cacheTokenId)\n        internal\n        view\n        returns (uint64)\n    {\n        return (uint64)(cacheTokenId / _maxCacheTokenPerSpot);\n    }\n\n    function _addFame(address receiver, uint16 amt) internal {\n        _fameWallet[receiver] = _fameWallet[receiver] + amt;\n    }\n\n    function _getSenderCacheTokenIdIfExists(uint64 spotId) internal view  returns (uint128)\n    {\n        for(uint i = 0; i < _spotCaches[spotId].length; i++)\n        {\n        uint128 cacheTokenId = _getCacheTokenIdFromSpotIdAndCacheIndex(spotId,i);\n        if(_cacheCreators[cacheTokenId] == _msgSender()) return cacheTokenId;\n        }\n        return 0;\n    }\n\n    function _mintEntryOnSpot(\n        uint64 spotId,\n        string memory message\n    ) internal {\n      \n      uint128 cacheTokenId = _getSenderCacheTokenIdIfExists(spotId);\n\n        if(cacheTokenId == 0)\n        {\n            cacheTokenId = _getCacheTokenIdFromSpotIdAndCacheIndex(spotId,_spotCaches[spotId].length);\n            require(bytes(message).length <= 30, '[RQ010] a cache name cannot exceed 15 characters!');\n\n            _spotCaches[spotId].push(message); //this sets cacheid\n            _voteWallet[cacheTokenId] = 0;\n            _cacheCreators[cacheTokenId] = _msgSender();\n            _ownerUnlockedCaches[_msgSender()][cacheTokenId] = true;\n            _payCacheCreationCost(spotId);\n            emit MintedCache(_msgSender(), spotId, cacheTokenId,_fameWallet[_msgSender()]);\n        }\n        else\n        {\n            require(_cacheEntries[cacheTokenId].length < _maxEntriesPerCache, '[RQ011] this cache is full, you cannot write more messages!');\n            _cacheEntries[cacheTokenId].push(message);\n            emit MintedEntry(_msgSender(), spotId, cacheTokenId,keccak256(bytes(message)),_fameWallet[_msgSender()]);\n        }\n       \n        \n    }\n    \n    function _getCacheTokenIdFromSpotIdAndCacheIndex(uint64 spotId, uint256 cacheIndex)\n        internal\n        view\n        returns (uint128)\n    {\n        return uint128(\n            (cacheIndex) + uint128(spotId) * _maxCacheTokenPerSpot\n        );\n    }\n\n\n    //ERC721 #################################\n\n    function totalSupply() public view returns (uint256) {\n        return _owners.length;\n    }\n\n    /**\n     * @dev See {IERC165-supportsInterface}.\n     */\n    function supportsInterface(bytes4 interfaceId)\n        public\n        view\n        virtual\n        override(ERC165, IERC165)\n        returns (bool)\n    {\n        return\n            interfaceId == type(IERC721).interfaceId ||\n            interfaceId == type(IERC721Metadata).interfaceId ||\n            super.supportsInterface(interfaceId);\n    }\n\n    /**\n     * @dev See {IERC721-balanceOf}.\n     */\n    function balanceOf(address owner)\n        public\n        view\n        virtual\n        override\n        returns (uint256)\n    {\n        require(\n            owner != address(0),\n            \"ERC721: balance query for the zero address\"\n        );\n\n        uint256 amt = 0;\n        for (uint256 i = 0; i < _owners.length; i++) {\n            if (_owners[i] == owner) {\n                amt++;\n            }\n        }\n        return amt;\n    }\n\n    /**\n     * @dev See {IERC721-ownerOf}.\n     */\n    function ownerOf(uint256 tokenId)\n        public\n        view\n        virtual\n        override\n        returns (address)\n    {\n        address owner = _owners[tokenId];\n        require(\n            owner != address(0),\n            \"ERC721: owner query for nonexistent token\"\n        );\n        return owner;\n    }\n\n    /**\n     * @dev See {IERC721Metadata-name}.\n     */\n    function name() public view virtual override returns (string memory) {\n        return _name;\n    }\n\n    /**\n     * @dev See {IERC721Metadata-symbol}.\n     */\n    function symbol() public view virtual override returns (string memory) {\n        return _symbol;\n    }\n\n    /**\n     * @dev See {IERC721Metadata-tokenURI}.\n     */\n    function tokenURI(uint256 tokenId)\n        public\n        view\n        virtual\n        override\n        returns (string memory)\n    {\n        require(\n            _exists(tokenId),\n            \"ERC721Metadata: URI query for nonexistent token\"\n        );\n\n        string memory baseURI = _baseURI();\n        return\n            bytes(baseURI).length > 0\n                ? string(abi.encodePacked(baseURI, tokenId.toString(), \".json\"))\n                : \"\";\n    }\n\n    /**\n     * @dev Base URI for computing {tokenURI}. If set, the resulting URI for each\n     * token will be the concatenation of the `baseURI` and the `tokenId`. Empty\n     * by default, can be overriden in child contracts.\n     */\n    function _baseURI() internal view virtual returns (string memory) {\n        return _baseURL;\n    }\n\n    /**\n     * @dev See {IERC721-approve}.\n     */\n    function approve(address to, uint256 tokenId) public virtual override {\n        address owner = MetaTrail.ownerOf(tokenId);\n        require(to != owner, \"ERC721: approval to current owner\");\n\n        require(\n            _msgSender() == owner || isApprovedForAll(owner, _msgSender()),\n            \"ERC721: approve caller is not owner nor approved for all\"\n        );\n\n        _approve(to, tokenId);\n    }\n\n    /**\n     * @dev See {IERC721-getApproved}.\n     */\n    function getApproved(uint256 tokenId)\n        public\n        view\n        virtual\n        override\n        returns (address)\n    {\n        require(\n            _exists(tokenId),\n            \"ERC721: approved query for nonexistent token\"\n        );\n\n        return _tokenApprovals[tokenId];\n    }\n\n    /**\n     * @dev See {IERC721-setApprovalForAll}.\n     */\n    function setApprovalForAll(address operator, bool approved)\n        public\n        virtual\n        override\n    {\n        _setApprovalForAll(_msgSender(), operator, approved);\n    }\n\n    /**\n     * @dev See {IERC721-isApprovedForAll}.\n     */\n    function isApprovedForAll(address owner, address operator)\n        public\n        view\n        virtual\n        override\n        returns (bool)\n    {\n        return _operatorApprovals[owner][operator];\n    }\n\n    /**\n     * @dev See {IERC721-transferFrom}.\n     */\n    function transferFrom(\n        address from,\n        address to,\n        uint256 tokenId\n    ) public virtual override {\n        //solhint-disable-next-line max-line-length\n        require(\n            _isApprovedOrOwner(_msgSender(), tokenId),\n            \"ERC721: transfer caller is not owner nor approved\"\n        );\n\n        _transfer(from, to, tokenId);\n    }\n\n    /**\n     * @dev See {IERC721-safeTransferFrom}.\n     */\n    function safeTransferFrom(\n        address from,\n        address to,\n        uint256 tokenId\n    ) public virtual override {\n        safeTransferFrom(from, to, tokenId, \"\");\n    }\n\n    /**\n     * @dev See {IERC721-safeTransferFrom}.\n     */\n    function safeTransferFrom(\n        address from,\n        address to,\n        uint256 tokenId,\n        bytes memory _data\n    ) public virtual override {\n        require(\n            _isApprovedOrOwner(_msgSender(), tokenId),\n            \"ERC721: transfer caller is not owner nor approved\"\n        );\n        _safeTransfer(from, to, tokenId, _data);\n    }\n\n    /**\n     * @dev Safely transfers `tokenId` token from `from` to `to`, checking first that contract recipients\n     * are aware of the ERC721 protocol to prevent tokens from being forever locked.\n     *\n     * `_data` is additional data, it has no specified format and it is sent in call to `to`.\n     *\n     * This internal function is equivalent to {safeTransferFrom}, and can be used to e.g.\n     * implement alternative mechanisms to perform token transfer, such as signature-based.\n     *\n     * Requirements:\n     *\n     * - `from` cannot be the zero address.\n     * - `to` cannot be the zero address.\n     * - `tokenId` token must exist and be owned by `from`.\n     * - If `to` refers to a smart contract, it must implement {IERC721Receiver-onERC721Received}, which is called upon a safe transfer.\n     *\n     * Emits a {Transfer} event.\n     */\n    function _safeTransfer(\n        address from,\n        address to,\n        uint256 tokenId,\n        bytes memory _data\n    ) internal virtual {\n        _transfer(from, to, tokenId);\n        require(\n            _checkOnERC721Received(from, to, tokenId, _data),\n            \"ERC721: transfer to non ERC721Receiver implementer\"\n        );\n    }\n\n    /**\n     * @dev Returns whether `tokenId` exists.\n     *\n     * Tokens can be managed by their owner or approved accounts via {approve} or {setApprovalForAll}.\n     *\n     * Tokens start existing when they are minted (`_mint`),\n     * and stop existing when they are burned (`_burn`).\n     */\n    function _exists(uint256 tokenId) internal view virtual returns (bool) {\n        return _owners.length < tokenId; //owner length is the amt of existing tokens, including burned tokens\n    }\n\n    /**\n     * @dev Returns whether `spender` is allowed to manage `tokenId`.\n     *\n     * Requirements:\n     *\n     * - `tokenId` must exist.\n     */\n    function _isApprovedOrOwner(address spender, uint256 tokenId)\n        internal\n        view\n        virtual\n        returns (bool)\n    {\n        require(\n            _exists(tokenId),\n            \"ERC721: operator query for nonexistent token\"\n        );\n        address owner = MetaTrail.ownerOf(tokenId);\n        return (spender == owner ||\n            getApproved(tokenId) == spender ||\n            isApprovedForAll(owner, spender));\n    }\n\n    /**\n     * @dev Safely mints `tokenId` and transfers it to `to`.\n     *\n     * Requirements:\n     *\n     * - `tokenId` must not exist.\n     * - If `to` refers to a smart contract, it must implement {IERC721Receiver-onERC721Received}, which is called upon a safe transfer.\n     *\n     * Emits a {Transfer} event.\n     */\n    function _safeMint(address to, uint256 tokenId) internal virtual {\n        _safeMint(to, tokenId, \"\");\n    }\n\n    /**\n     * @dev Same as {xref-ERC721-_safeMint-address-uint256-}[`_safeMint`], with an additional `data` parameter which is\n     * forwarded in {IERC721Receiver-onERC721Received} to contract recipients.\n     */\n    function _safeMint(\n        address to,\n        uint256 tokenId,\n        bytes memory _data\n    ) internal virtual {\n        _mint(to, tokenId);\n        require(\n            _checkOnERC721Received(address(0), to, tokenId, _data),\n            \"ERC721: transfer to non ERC721Receiver implementer\"\n        );\n    }\n\n    /**\n     * @dev Mints `tokenId` and transfers it to `to`.\n     *\n     * WARNING: Usage of this method is discouraged, use {_safeMint} whenever possible\n     *\n     * Requirements:\n     *\n     * - `tokenId` must not exist.\n     * - `to` cannot be the zero address.\n     *\n     * Emits a {Transfer} event.\n     */\n    function _mint(address to, uint256 tokenId) internal virtual {\n        require(to != address(0), \"ERC721: mint to the zero address\");\n        require(!_exists(tokenId), \"ERC721: token already minted\");\n\n        _beforeTokenTransfer(address(0), to, tokenId);\n        _owners.push(to);\n\n        emit Transfer(address(0), to, tokenId);\n    }\n\n    /**\n     * @dev Destroys `tokenId`.\n     * The approval is cleared when the token is burned.\n     *\n     * Requirements:\n     *\n     * - `tokenId` must exist.\n     *\n     * Emits a {Transfer} event.\n     */\n    function _burn(uint256 tokenId) internal virtual {\n        address owner = MetaTrail.ownerOf(tokenId);\n\n        _beforeTokenTransfer(owner, address(0), tokenId);\n\n        // Clear approvals\n        _approve(address(0), tokenId);\n\n        _owners[tokenId] = address(0);\n\n        emit Transfer(owner, address(0), tokenId);\n    }\n\n    /**\n     * @dev Transfers `tokenId` from `from` to `to`.\n     *  As opposed to {transferFrom}, this imposes no restrictions on msg.sender.\n     *\n     * Requirements:\n     *\n     * - `to` cannot be the zero address.\n     * - `tokenId` token must be owned by `from`.\n     *\n     * Emits a {Transfer} event.\n     */\n    function _transfer(\n        address from,\n        address to,\n        uint256 tokenId\n    ) internal virtual {\n        require(\n            MetaTrail.ownerOf(tokenId) == from,\n            \"ERC721: transfer of token that is not own\"\n        );\n        require(to != address(0), \"ERC721: transfer to the zero address\");\n\n        _beforeTokenTransfer(from, to, tokenId);\n\n        // Clear approvals from the previous owner\n        _approve(address(0), tokenId);\n\n        _owners[tokenId] = to;\n\n        emit Transfer(from, to, tokenId);\n    }\n\n    /**\n     * @dev Approve `to` to operate on `tokenId`\n     *\n     * Emits a {Approval} event.\n     */\n    function _approve(address to, uint256 tokenId) internal virtual {\n        _tokenApprovals[tokenId] = to;\n        emit Approval(MetaTrail.ownerOf(tokenId), to, tokenId);\n    }\n\n    /**\n     * @dev Approve `operator` to operate on all of `owner` tokens\n     *\n     * Emits a {ApprovalForAll} event.\n     */\n    function _setApprovalForAll(\n        address owner,\n        address operator,\n        bool approved\n    ) internal virtual {\n        require(owner != operator, \"ERC721: approve to caller\");\n        _operatorApprovals[owner][operator] = approved;\n        emit ApprovalForAll(owner, operator, approved);\n    }\n\n    /**\n     * @dev Internal function to invoke {IERC721Receiver-onERC721Received} on a target address.\n     * The call is not executed if the target address is not a contract.\n     *\n     * @param from address representing the previous owner of the given token ID\n     * @param to target address that will receive the tokens\n     * @param tokenId uint256 ID of the token to be transferred\n     * @param _data bytes optional data to send along with the call\n     * @return bool whether the call correctly returned the expected magic value\n     */\n    function _checkOnERC721Received(\n        address from,\n        address to,\n        uint256 tokenId,\n        bytes memory _data\n    ) private returns (bool) {\n        if (to.isContract()) {\n            try\n                IERC721Receiver(to).onERC721Received(\n                    _msgSender(),\n                    from,\n                    tokenId,\n                    _data\n                )\n            returns (bytes4 retval) {\n                return retval == IERC721Receiver.onERC721Received.selector;\n            } catch (bytes memory reason) {\n                if (reason.length == 0) {\n                    revert(\n                        \"ERC721: transfer to non ERC721Receiver implementer\"\n                    );\n                } else {\n                    assembly {\n                        revert(add(32, reason), mload(reason))\n                    }\n                }\n            }\n        } else {\n            return true;\n        }\n    }\n\n    /**\n     * @dev Hook that is called before any token transfer. This includes minting\n     * and burning.\n     *\n     * Calling conditions:\n     *\n     * - When `from` and `to` are both non-zero, ``from``'s `tokenId` will be\n     * transferred to `to`.\n     * - When `from` is zero, `tokenId` will be minted for `to`.\n     * - When `to` is zero, ``from``'s `tokenId` will be burned.\n     * - `from` and `to` are never both zero.\n     *\n     * To learn more about hooks, head to xref:ROOT:extending-contracts.adoc#using-hooks[Using Hooks].\n     */\n    function _beforeTokenTransfer(\n        address from,\n        address to,\n        uint256 tokenId\n    ) internal virtual {}\n}\n",
  "sourcePath": "/app/contracts/MetaTrail.sol",
  "compiler": {
    "name": "solc",
    "version": "0.8.1+commit.df193b15.Emscripten.clang"
  },
  "schemaVersion": "3.4.14",
  "updatedAt": "2023-06-09T16:34:37.834Z",
  "devdoc": {
    "details": "Implementation of https://eips.ethereum.org/EIPS/eip-721[ERC721] Non-Fungible Token Standard, including the Metadata extension, but not including the Enumerable extension, which is available separately as {ERC721Enumerable}.",
    "kind": "dev",
    "methods": {
      "approve(address,uint256)": {
        "details": "See {IERC721-approve}."
      },
      "balanceOf(address)": {
        "details": "See {IERC721-balanceOf}."
      },
      "getApproved(uint256)": {
        "details": "See {IERC721-getApproved}."
      },
      "isApprovedForAll(address,address)": {
        "details": "See {IERC721-isApprovedForAll}."
      },
      "name()": {
        "details": "See {IERC721Metadata-name}."
      },
      "owner()": {
        "details": "Returns the address of the current owner."
      },
      "ownerOf(uint256)": {
        "details": "See {IERC721-ownerOf}."
      },
      "renounceOwnership()": {
        "details": "Leaves the contract without owner. It will not be possible to call `onlyOwner` functions anymore. Can only be called by the current owner. NOTE: Renouncing ownership will leave the contract without an owner, thereby removing any functionality that is only available to the owner."
      },
      "safeTransferFrom(address,address,uint256)": {
        "details": "See {IERC721-safeTransferFrom}."
      },
      "safeTransferFrom(address,address,uint256,bytes)": {
        "details": "See {IERC721-safeTransferFrom}."
      },
      "setApprovalForAll(address,bool)": {
        "details": "See {IERC721-setApprovalForAll}."
      },
      "supportsInterface(bytes4)": {
        "details": "See {IERC165-supportsInterface}."
      },
      "symbol()": {
        "details": "See {IERC721Metadata-symbol}."
      },
      "tokenURI(uint256)": {
        "details": "See {IERC721Metadata-tokenURI}."
      },
      "transferFrom(address,address,uint256)": {
        "details": "See {IERC721-transferFrom}."
      },
      "transferOwnership(address)": {
        "details": "Transfers ownership of the contract to a new account (`newOwner`). Can only be called by the current owner."
      }
    },
    "version": 1
  },
  "userdoc": {
    "kind": "user",
    "methods": {},
    "version": 1
  }
}